{
  "_format": "hh-sol-artifact-1",
  "contractName": "Ballot",
  "sourceName": "contracts/Ballot.sol",
  "abi": [
    {
      "inputs": [
        {
          "internalType": "address",
          "name": "_vr",
          "type": "address"
        },
        {
          "internalType": "address",
          "name": "_cm",
          "type": "address"
        },
        {
          "internalType": "address",
          "name": "_em",
          "type": "address"
        }
      ],
      "stateMutability": "nonpayable",
      "type": "constructor"
    },
    {
      "inputs": [
        {
          "internalType": "address",
          "name": "owner",
          "type": "address"
        }
      ],
      "name": "OwnableInvalidOwner",
      "type": "error"
    },
    {
      "inputs": [
        {
          "internalType": "address",
          "name": "account",
          "type": "address"
        }
      ],
      "name": "OwnableUnauthorizedAccount",
      "type": "error"
    },
    {
      "anonymous": false,
      "inputs": [
        {
          "indexed": true,
          "internalType": "address",
          "name": "previousOwner",
          "type": "address"
        },
        {
          "indexed": true,
          "internalType": "address",
          "name": "newOwner",
          "type": "address"
        }
      ],
      "name": "OwnershipTransferred",
      "type": "event"
    },
    {
      "anonymous": false,
      "inputs": [
        {
          "indexed": true,
          "internalType": "uint256",
          "name": "electionId",
          "type": "uint256"
        },
        {
          "indexed": true,
          "internalType": "uint256",
          "name": "candidateId",
          "type": "uint256"
        },
        {
          "indexed": false,
          "internalType": "address",
          "name": "voter",
          "type": "address"
        }
      ],
      "name": "VoteCasted",
      "type": "event"
    },
    {
      "anonymous": false,
      "inputs": [
        {
          "indexed": true,
          "internalType": "uint256",
          "name": "electionId",
          "type": "uint256"
        },
        {
          "indexed": false,
          "internalType": "address[]",
          "name": "voters",
          "type": "address[]"
        }
      ],
      "name": "VotersAdded",
      "type": "event"
    },
    {
      "inputs": [
        {
          "internalType": "uint256",
          "name": "electionId",
          "type": "uint256"
        },
        {
          "internalType": "address[]",
          "name": "voters",
          "type": "address[]"
        }
      ],
      "name": "addVoters",
      "outputs": [],
      "stateMutability": "nonpayable",
      "type": "function"
    },
    {
      "inputs": [],
      "name": "cm",
      "outputs": [
        {
          "internalType": "contract CandidateManager",
          "name": "",
          "type": "address"
        }
      ],
      "stateMutability": "view",
      "type": "function"
    },
    {
      "inputs": [
        {
          "internalType": "uint256",
          "name": "",
          "type": "uint256"
        },
        {
          "internalType": "address",
          "name": "",
          "type": "address"
        }
      ],
      "name": "eligible",
      "outputs": [
        {
          "internalType": "bool",
          "name": "",
          "type": "bool"
        }
      ],
      "stateMutability": "view",
      "type": "function"
    },
    {
      "inputs": [],
      "name": "em",
      "outputs": [
        {
          "internalType": "contract ElectionManager",
          "name": "",
          "type": "address"
        }
      ],
      "stateMutability": "view",
      "type": "function"
    },
    {
      "inputs": [
        {
          "internalType": "uint256",
          "name": "electionId",
          "type": "uint256"
        },
        {
          "internalType": "uint256",
          "name": "candidateId",
          "type": "uint256"
        }
      ],
      "name": "getVotes",
      "outputs": [
        {
          "internalType": "uint256",
          "name": "",
          "type": "uint256"
        }
      ],
      "stateMutability": "view",
      "type": "function"
    },
    {
      "inputs": [
        {
          "internalType": "uint256",
          "name": "",
          "type": "uint256"
        },
        {
          "internalType": "address",
          "name": "",
          "type": "address"
        }
      ],
      "name": "hasVoted",
      "outputs": [
        {
          "internalType": "bool",
          "name": "",
          "type": "bool"
        }
      ],
      "stateMutability": "view",
      "type": "function"
    },
    {
      "inputs": [],
      "name": "owner",
      "outputs": [
        {
          "internalType": "address",
          "name": "",
          "type": "address"
        }
      ],
      "stateMutability": "view",
      "type": "function"
    },
    {
      "inputs": [],
      "name": "renounceOwnership",
      "outputs": [],
      "stateMutability": "nonpayable",
      "type": "function"
    },
    {
      "inputs": [
        {
          "internalType": "address",
          "name": "newOwner",
          "type": "address"
        }
      ],
      "name": "transferOwnership",
      "outputs": [],
      "stateMutability": "nonpayable",
      "type": "function"
    },
    {
      "inputs": [
        {
          "internalType": "uint256",
          "name": "electionId",
          "type": "uint256"
        },
        {
          "internalType": "uint256",
          "name": "candidateId",
          "type": "uint256"
        }
      ],
      "name": "vote",
      "outputs": [],
      "stateMutability": "nonpayable",
      "type": "function"
    },
    {
      "inputs": [],
      "name": "vr",
      "outputs": [
        {
          "internalType": "contract VoterRegistry",
          "name": "",
          "type": "address"
        }
      ],
      "stateMutability": "view",
      "type": "function"
    }
  ],
  "bytecode": "0x60e06040523480156200001157600080fd5b5060405162001b3b38038062001b3b833981810160405281019062000037919062000292565b33600073ffffffffffffffffffffffffffffffffffffffff168173ffffffffffffffffffffffffffffffffffffffff1603620000ad5760006040517f1e4fbdf7000000000000000000000000000000000000000000000000000000008152600401620000a49190620002ff565b60405180910390fd5b620000be816200016460201b60201c565b508273ffffffffffffffffffffffffffffffffffffffff1660c08173ffffffffffffffffffffffffffffffffffffffff16815250508173ffffffffffffffffffffffffffffffffffffffff1660a08173ffffffffffffffffffffffffffffffffffffffff16815250508073ffffffffffffffffffffffffffffffffffffffff1660808173ffffffffffffffffffffffffffffffffffffffff16815250505050506200031c565b60008060009054906101000a900473ffffffffffffffffffffffffffffffffffffffff169050816000806101000a81548173ffffffffffffffffffffffffffffffffffffffff021916908373ffffffffffffffffffffffffffffffffffffffff1602179055508173ffffffffffffffffffffffffffffffffffffffff168173ffffffffffffffffffffffffffffffffffffffff167f8be0079c531659141344cd1fd0a4f28419497f9722a3daafe3b4186f6b6457e060405160405180910390a35050565b600080fd5b600073ffffffffffffffffffffffffffffffffffffffff82169050919050565b60006200025a826200022d565b9050919050565b6200026c816200024d565b81146200027857600080fd5b50565b6000815190506200028c8162000261565b92915050565b600080600060608486031215620002ae57620002ad62000228565b5b6000620002be868287016200027b565b9350506020620002d1868287016200027b565b9250506040620002e4868287016200027b565b9150509250925092565b620002f9816200024d565b82525050565b6000602082019050620003166000830184620002ee565b92915050565b60805160a05160c0516117d3620003686000396000818161024501526103e901526000610304015260008181610328015281816104c4015281816105be01526108f601526117d36000f3fe608060405234801561001057600080fd5b50600436106100a95760003560e01c806391f366331161007157806391f36633146101545780639318162014610184578063b0074de5146101a2578063b384abef146101c0578063f2fde38b146101dc578063f45969c6146101f8576100a9565b80632b3e9d93146100ae578063332970a5146100de57806343859632146100fc578063715018a61461012c5780638da5cb5b14610136575b600080fd5b6100c860048036038101906100c39190610cc4565b610214565b6040516100d59190610d1f565b60405180910390f35b6100e6610243565b6040516100f39190610d99565b60405180910390f35b61011660048036038101906101119190610cc4565b610267565b6040516101239190610d1f565b60405180910390f35b610134610296565b005b61013e6102aa565b60405161014b9190610dc3565b60405180910390f35b61016e60048036038101906101699190610dde565b6102d3565b60405161017b9190610e2d565b60405180910390f35b61018c610302565b6040516101999190610e69565b60405180910390f35b6101aa610326565b6040516101b79190610ea5565b60405180910390f35b6101da60048036038101906101d59190610dde565b61034a565b005b6101f660048036038101906101f19190610ec0565b610864565b005b610212600480360381019061020d9190610f52565b6108ea565b005b60026020528160005260406000206020528060005260406000206000915091509054906101000a900460ff1681565b7f000000000000000000000000000000000000000000000000000000000000000081565b60016020528160005260406000206020528060005260406000206000915091509054906101000a900460ff1681565b61029e610ac9565b6102a86000610b50565b565b60008060009054906101000a900473ffffffffffffffffffffffffffffffffffffffff16905090565b600060036000848152602001908152602001600020600083815260200190815260200160002054905092915050565b7f000000000000000000000000000000000000000000000000000000000000000081565b7f000000000000000000000000000000000000000000000000000000000000000081565b6002600083815260200190815260200160002060003373ffffffffffffffffffffffffffffffffffffffff1673ffffffffffffffffffffffffffffffffffffffff16815260200190815260200160002060009054906101000a900460ff166103e7576040517f08c379a00000000000000000000000000000000000000000000000000000000081526004016103de9061100f565b60405180910390fd5b7f000000000000000000000000000000000000000000000000000000000000000073ffffffffffffffffffffffffffffffffffffffff1663c3c5a547336040518263ffffffff1660e01b81526004016104409190610dc3565b602060405180830381865afa15801561045d573d6000803e3d6000fd5b505050506040513d601f19601f82011682018060405250810190610481919061105b565b6104c0576040517f08c379a00000000000000000000000000000000000000000000000000000000081526004016104b7906110d4565b60405180910390fd5b60007f000000000000000000000000000000000000000000000000000000000000000073ffffffffffffffffffffffffffffffffffffffff16639d710777846040518263ffffffff1660e01b815260040161051b9190610e2d565b600060405180830381865afa158015610538573d6000803e3d6000fd5b505050506040513d6000823e3d601f19601f82011682018060405250810190610561919061131f565b90508060400151421015801561057b575080606001514211155b6105ba576040517f08c379a00000000000000000000000000000000000000000000000000000000081526004016105b1906113b4565b60405180910390fd5b60007f000000000000000000000000000000000000000000000000000000000000000073ffffffffffffffffffffffffffffffffffffffff16635e12845e856040518263ffffffff1660e01b81526004016106159190610e2d565b600060405180830381865afa158015610632573d6000803e3d6000fd5b505050506040513d6000823e3d601f19601f8201168201806040525081019061065b9190611497565b90506000805b82518110156106a1578483828151811061067e5761067d6114e0565b5b60200260200101510361069457600191506106a1565b8080600101915050610661565b50806106e2576040517f08c379a00000000000000000000000000000000000000000000000000000000081526004016106d99061155b565b60405180910390fd5b6001600086815260200190815260200160002060003373ffffffffffffffffffffffffffffffffffffffff1673ffffffffffffffffffffffffffffffffffffffff16815260200190815260200160002060009054906101000a900460ff1615610780576040517f08c379a0000000000000000000000000000000000000000000000000000000008152600401610777906115c7565b60405180910390fd5b600160036000878152602001908152602001600020600086815260200190815260200160002060008282546107b59190611616565b92505081905550600180600087815260200190815260200160002060003373ffffffffffffffffffffffffffffffffffffffff1673ffffffffffffffffffffffffffffffffffffffff16815260200190815260200160002060006101000a81548160ff02191690831515021790555083857ffe9b9fe32c3fe66775687ffbbb055de4489a6f99a6d31665430849156e8d7435336040516108559190610dc3565b60405180910390a35050505050565b61086c610ac9565b600073ffffffffffffffffffffffffffffffffffffffff168173ffffffffffffffffffffffffffffffffffffffff16036108de5760006040517f1e4fbdf70000000000000000000000000000000000000000000000000000000081526004016108d59190610dc3565b60405180910390fd5b6108e781610b50565b50565b6108f2610ac9565b60007f000000000000000000000000000000000000000000000000000000000000000073ffffffffffffffffffffffffffffffffffffffff16639d710777856040518263ffffffff1660e01b815260040161094d9190610e2d565b600060405180830381865afa15801561096a573d6000803e3d6000fd5b505050506040513d6000823e3d601f19601f82011682018060405250810190610993919061131f565b90506000816000015151036109dd576040517f08c379a00000000000000000000000000000000000000000000000000000000081526004016109d490611696565b60405180910390fd5b60005b83839050811015610a88576001600260008781526020019081526020016000206000868685818110610a1557610a146114e0565b5b9050602002016020810190610a2a9190610ec0565b73ffffffffffffffffffffffffffffffffffffffff1673ffffffffffffffffffffffffffffffffffffffff16815260200190815260200160002060006101000a81548160ff02191690831515021790555080806001019150506109e0565b50837f9c3a44e8269e31a42d9e392baf6017d74b30310341be323131a7462a656519088484604051610abb929190611779565b60405180910390a250505050565b610ad1610c14565b73ffffffffffffffffffffffffffffffffffffffff16610aef6102aa565b73ffffffffffffffffffffffffffffffffffffffff1614610b4e57610b12610c14565b6040517f118cdaa7000000000000000000000000000000000000000000000000000000008152600401610b459190610dc3565b60405180910390fd5b565b60008060009054906101000a900473ffffffffffffffffffffffffffffffffffffffff169050816000806101000a81548173ffffffffffffffffffffffffffffffffffffffff021916908373ffffffffffffffffffffffffffffffffffffffff1602179055508173ffffffffffffffffffffffffffffffffffffffff168173ffffffffffffffffffffffffffffffffffffffff167f8be0079c531659141344cd1fd0a4f28419497f9722a3daafe3b4186f6b6457e060405160405180910390a35050565b600033905090565b6000604051905090565b600080fd5b600080fd5b6000819050919050565b610c4381610c30565b8114610c4e57600080fd5b50565b600081359050610c6081610c3a565b92915050565b600073ffffffffffffffffffffffffffffffffffffffff82169050919050565b6000610c9182610c66565b9050919050565b610ca181610c86565b8114610cac57600080fd5b50565b600081359050610cbe81610c98565b92915050565b60008060408385031215610cdb57610cda610c26565b5b6000610ce985828601610c51565b9250506020610cfa85828601610caf565b9150509250929050565b60008115159050919050565b610d1981610d04565b82525050565b6000602082019050610d346000830184610d10565b92915050565b6000819050919050565b6000610d5f610d5a610d5584610c66565b610d3a565b610c66565b9050919050565b6000610d7182610d44565b9050919050565b6000610d8382610d66565b9050919050565b610d9381610d78565b82525050565b6000602082019050610dae6000830184610d8a565b92915050565b610dbd81610c86565b82525050565b6000602082019050610dd86000830184610db4565b92915050565b60008060408385031215610df557610df4610c26565b5b6000610e0385828601610c51565b9250506020610e1485828601610c51565b9150509250929050565b610e2781610c30565b82525050565b6000602082019050610e426000830184610e1e565b92915050565b6000610e5382610d66565b9050919050565b610e6381610e48565b82525050565b6000602082019050610e7e6000830184610e5a565b92915050565b6000610e8f82610d66565b9050919050565b610e9f81610e84565b82525050565b6000602082019050610eba6000830184610e96565b92915050565b600060208284031215610ed657610ed5610c26565b5b6000610ee484828501610caf565b91505092915050565b600080fd5b600080fd5b600080fd5b60008083601f840112610f1257610f11610eed565b5b8235905067ffffffffffffffff811115610f2f57610f2e610ef2565b5b602083019150836020820283011115610f4b57610f4a610ef7565b5b9250929050565b600080600060408486031215610f6b57610f6a610c26565b5b6000610f7986828701610c51565b935050602084013567ffffffffffffffff811115610f9a57610f99610c2b565b5b610fa686828701610efc565b92509250509250925092565b600082825260208201905092915050565b7f4e6f742077686974656c69737465640000000000000000000000000000000000600082015250565b6000610ff9600f83610fb2565b915061100482610fc3565b602082019050919050565b6000602082019050818103600083015261102881610fec565b9050919050565b61103881610d04565b811461104357600080fd5b50565b6000815190506110558161102f565b92915050565b60006020828403121561107157611070610c26565b5b600061107f84828501611046565b91505092915050565b7f4e6f74207265676973746572656420766f746572000000000000000000000000600082015250565b60006110be601483610fb2565b91506110c982611088565b602082019050919050565b600060208201905081810360008301526110ed816110b1565b9050919050565b600080fd5b6000601f19601f8301169050919050565b7f4e487b7100000000000000000000000000000000000000000000000000000000600052604160045260246000fd5b611142826110f9565b810181811067ffffffffffffffff821117156111615761116061110a565b5b80604052505050565b6000611174610c1c565b90506111808282611139565b919050565b600080fd5b600080fd5b600067ffffffffffffffff8211156111aa576111a961110a565b5b6111b3826110f9565b9050602081019050919050565b60005b838110156111de5780820151818401526020810190506111c3565b60008484015250505050565b60006111fd6111f88461118f565b61116a565b9050828152602081018484840111156112195761121861118a565b5b6112248482856111c0565b509392505050565b600082601f83011261124157611240610eed565b5b81516112518482602086016111ea565b91505092915050565b60008151905061126981610c3a565b92915050565b600060808284031215611285576112846110f4565b5b61128f608061116a565b9050600082015167ffffffffffffffff8111156112af576112ae611185565b5b6112bb8482850161122c565b600083015250602082015167ffffffffffffffff8111156112df576112de611185565b5b6112eb8482850161122c565b60208301525060406112ff8482850161125a565b60408301525060606113138482850161125a565b60608301525092915050565b60006020828403121561133557611334610c26565b5b600082015167ffffffffffffffff81111561135357611352610c2b565b5b61135f8482850161126f565b91505092915050565b7f4e6f742061637469766500000000000000000000000000000000000000000000600082015250565b600061139e600a83610fb2565b91506113a982611368565b602082019050919050565b600060208201905081810360008301526113cd81611391565b9050919050565b600067ffffffffffffffff8211156113ef576113ee61110a565b5b602082029050602081019050919050565b600061141361140e846113d4565b61116a565b9050808382526020820190506020840283018581111561143657611435610ef7565b5b835b8181101561145f578061144b888261125a565b845260208401935050602081019050611438565b5050509392505050565b600082601f83011261147e5761147d610eed565b5b815161148e848260208601611400565b91505092915050565b6000602082840312156114ad576114ac610c26565b5b600082015167ffffffffffffffff8111156114cb576114ca610c2b565b5b6114d784828501611469565b91505092915050565b7f4e487b7100000000000000000000000000000000000000000000000000000000600052603260045260246000fd5b7f43616e646964617465206e6f7420696e20656c656374696f6e00000000000000600082015250565b6000611545601983610fb2565b91506115508261150f565b602082019050919050565b6000602082019050818103600083015261157481611538565b9050919050565b7f416c726561647920766f74656400000000000000000000000000000000000000600082015250565b60006115b1600d83610fb2565b91506115bc8261157b565b602082019050919050565b600060208201905081810360008301526115e0816115a4565b9050919050565b7f4e487b7100000000000000000000000000000000000000000000000000000000600052601160045260246000fd5b600061162182610c30565b915061162c83610c30565b9250828201905080821115611644576116436115e7565b5b92915050565b7f456c656374696f6e20646f6573206e6f74206578697374000000000000000000600082015250565b6000611680601783610fb2565b915061168b8261164a565b602082019050919050565b600060208201905081810360008301526116af81611673565b9050919050565b600082825260208201905092915050565b6000819050919050565b6116da81610c86565b82525050565b60006116ec83836116d1565b60208301905092915050565b60006117076020840184610caf565b905092915050565b6000602082019050919050565b600061172883856116b6565b9350611733826116c7565b8060005b8581101561176c5761174982846116f8565b61175388826116e0565b975061175e8361170f565b925050600181019050611737565b5085925050509392505050565b6000602082019050818103600083015261179481848661171c565b9050939250505056fea2646970667358221220f169f73774ca4ce43a7afa7bd4abe1b287488a8f2b249e6576e8e4e95633340e64736f6c63430008180033",
  "linkReferences": {},
  "deployedLinkReferences": {}
}