{
  "_format": "hh-sol-artifact-1",
  "contractName": "Ballot",
  "sourceName": "contracts/Ballot.sol",
  "abi": [
    {
      "inputs": [
        {
          "internalType": "address",
          "name": "_vr",
          "type": "address"
        },
        {
          "internalType": "address",
          "name": "_cm",
          "type": "address"
        },
        {
          "internalType": "address",
          "name": "_em",
          "type": "address"
        }
      ],
      "stateMutability": "nonpayable",
      "type": "constructor"
    },
    {
      "inputs": [
        {
          "internalType": "address",
          "name": "owner",
          "type": "address"
        }
      ],
      "name": "OwnableInvalidOwner",
      "type": "error"
    },
    {
      "inputs": [
        {
          "internalType": "address",
          "name": "account",
          "type": "address"
        }
      ],
      "name": "OwnableUnauthorizedAccount",
      "type": "error"
    },
    {
      "anonymous": false,
      "inputs": [
        {
          "indexed": true,
          "internalType": "address",
          "name": "previousOwner",
          "type": "address"
        },
        {
          "indexed": true,
          "internalType": "address",
          "name": "newOwner",
          "type": "address"
        }
      ],
      "name": "OwnershipTransferred",
      "type": "event"
    },
    {
      "anonymous": false,
      "inputs": [
        {
          "indexed": true,
          "internalType": "uint256",
          "name": "electionId",
          "type": "uint256"
        },
        {
          "indexed": true,
          "internalType": "uint256",
          "name": "candidateId",
          "type": "uint256"
        },
        {
          "indexed": false,
          "internalType": "address",
          "name": "voter",
          "type": "address"
        }
      ],
      "name": "VoteCasted",
      "type": "event"
    },
    {
      "anonymous": false,
      "inputs": [
        {
          "indexed": true,
          "internalType": "uint256",
          "name": "electionId",
          "type": "uint256"
        },
        {
          "indexed": false,
          "internalType": "address[]",
          "name": "voters",
          "type": "address[]"
        }
      ],
      "name": "VotersAdded",
      "type": "event"
    },
    {
      "inputs": [
        {
          "internalType": "uint256",
          "name": "electionId",
          "type": "uint256"
        },
        {
          "internalType": "address[]",
          "name": "voters",
          "type": "address[]"
        }
      ],
      "name": "addVoters",
      "outputs": [],
      "stateMutability": "nonpayable",
      "type": "function"
    },
    {
      "inputs": [],
      "name": "cm",
      "outputs": [
        {
          "internalType": "contract CandidateManager",
          "name": "",
          "type": "address"
        }
      ],
      "stateMutability": "view",
      "type": "function"
    },
    {
      "inputs": [],
      "name": "em",
      "outputs": [
        {
          "internalType": "contract ElectionManager",
          "name": "",
          "type": "address"
        }
      ],
      "stateMutability": "view",
      "type": "function"
    },
    {
      "inputs": [
        {
          "internalType": "uint256",
          "name": "electionId",
          "type": "uint256"
        },
        {
          "internalType": "uint256",
          "name": "candidateId",
          "type": "uint256"
        }
      ],
      "name": "getVotes",
      "outputs": [
        {
          "internalType": "uint256",
          "name": "",
          "type": "uint256"
        }
      ],
      "stateMutability": "view",
      "type": "function"
    },
    {
      "inputs": [],
      "name": "owner",
      "outputs": [
        {
          "internalType": "address",
          "name": "",
          "type": "address"
        }
      ],
      "stateMutability": "view",
      "type": "function"
    },
    {
      "inputs": [],
      "name": "renounceOwnership",
      "outputs": [],
      "stateMutability": "nonpayable",
      "type": "function"
    },
    {
      "inputs": [
        {
          "internalType": "address",
          "name": "newOwner",
          "type": "address"
        }
      ],
      "name": "transferOwnership",
      "outputs": [],
      "stateMutability": "nonpayable",
      "type": "function"
    },
    {
      "inputs": [
        {
          "internalType": "uint256",
          "name": "electionId",
          "type": "uint256"
        },
        {
          "internalType": "uint256",
          "name": "candidateId",
          "type": "uint256"
        }
      ],
      "name": "vote",
      "outputs": [],
      "stateMutability": "nonpayable",
      "type": "function"
    },
    {
      "inputs": [],
      "name": "vr",
      "outputs": [
        {
          "internalType": "contract VoterRegistry",
          "name": "",
          "type": "address"
        }
      ],
      "stateMutability": "view",
      "type": "function"
    }
  ],
  "bytecode": "0x60e06040523480156200001157600080fd5b50604051620018a3380380620018a3833981810160405281019062000037919062000292565b33600073ffffffffffffffffffffffffffffffffffffffff168173ffffffffffffffffffffffffffffffffffffffff1603620000ad5760006040517f1e4fbdf7000000000000000000000000000000000000000000000000000000008152600401620000a49190620002ff565b60405180910390fd5b620000be816200016460201b60201c565b508273ffffffffffffffffffffffffffffffffffffffff1660c08173ffffffffffffffffffffffffffffffffffffffff16815250508173ffffffffffffffffffffffffffffffffffffffff1660a08173ffffffffffffffffffffffffffffffffffffffff16815250508073ffffffffffffffffffffffffffffffffffffffff1660808173ffffffffffffffffffffffffffffffffffffffff16815250505050506200031c565b60008060009054906101000a900473ffffffffffffffffffffffffffffffffffffffff169050816000806101000a81548173ffffffffffffffffffffffffffffffffffffffff021916908373ffffffffffffffffffffffffffffffffffffffff1602179055508173ffffffffffffffffffffffffffffffffffffffff168173ffffffffffffffffffffffffffffffffffffffff167f8be0079c531659141344cd1fd0a4f28419497f9722a3daafe3b4186f6b6457e060405160405180910390a35050565b600080fd5b600073ffffffffffffffffffffffffffffffffffffffff82169050919050565b60006200025a826200022d565b9050919050565b6200026c816200024d565b81146200027857600080fd5b50565b6000815190506200028c8162000261565b92915050565b600080600060608486031215620002ae57620002ad62000228565b5b6000620002be868287016200027b565b9350506020620002d1868287016200027b565b9250506040620002e4868287016200027b565b9150509250925092565b620002f9816200024d565b82525050565b6000602082019050620003166000830184620002ee565b92915050565b60805160a05160c05161152d62000376600039600081816101a001528181610278015281816105770152818161065201526107e80152600061023001526000818161025401528181610355015261044f015261152d6000f3fe608060405234801561001057600080fd5b50600436106100935760003560e01c80639318162011610066578063931816201461010e578063b0074de51461012c578063b384abef1461014a578063f2fde38b14610166578063f45969c61461018257610093565b8063332970a514610098578063715018a6146100b65780638da5cb5b146100c057806391f36633146100de575b600080fd5b6100a061019e565b6040516100ad9190610a86565b60405180910390f35b6100be6101c2565b005b6100c86101d6565b6040516100d59190610ac2565b60405180910390f35b6100f860048036038101906100f39190610b27565b6101ff565b6040516101059190610b76565b60405180910390f35b61011661022e565b6040516101239190610bb2565b60405180910390f35b610134610252565b6040516101419190610bee565b60405180910390f35b610164600480360381019061015f9190610b27565b610276565b005b610180600480360381019061017b9190610c35565b610758565b005b61019c60048036038101906101979190610cc7565b6107de565b005b7f000000000000000000000000000000000000000000000000000000000000000081565b6101ca6108b4565b6101d4600061093b565b565b60008060009054906101000a900473ffffffffffffffffffffffffffffffffffffffff16905090565b600060016000848152602001908152602001600020600083815260200190815260200160002054905092915050565b7f000000000000000000000000000000000000000000000000000000000000000081565b7f000000000000000000000000000000000000000000000000000000000000000081565b7f000000000000000000000000000000000000000000000000000000000000000073ffffffffffffffffffffffffffffffffffffffff1663592e0e0083336040518363ffffffff1660e01b81526004016102d1929190610d27565b602060405180830381865afa1580156102ee573d6000803e3d6000fd5b505050506040513d601f19601f820116820180604052508101906103129190610d88565b610351576040517f08c379a000000000000000000000000000000000000000000000000000000000815260040161034890610e12565b60405180910390fd5b60007f000000000000000000000000000000000000000000000000000000000000000073ffffffffffffffffffffffffffffffffffffffff16639d710777846040518263ffffffff1660e01b81526004016103ac9190610b76565b600060405180830381865afa1580156103c9573d6000803e3d6000fd5b505050506040513d6000823e3d601f19601f820116820180604052508101906103f2919061105d565b90508060400151421015801561040c575080606001514211155b61044b576040517f08c379a0000000000000000000000000000000000000000000000000000000008152600401610442906110f2565b60405180910390fd5b60007f000000000000000000000000000000000000000000000000000000000000000073ffffffffffffffffffffffffffffffffffffffff16635e12845e856040518263ffffffff1660e01b81526004016104a69190610b76565b600060405180830381865afa1580156104c3573d6000803e3d6000fd5b505050506040513d6000823e3d601f19601f820116820180604052508101906104ec91906111d5565b90506000805b8251811015610532578483828151811061050f5761050e61121e565b5b6020026020010151036105255760019150610532565b80806001019150506104f2565b5080610573576040517f08c379a000000000000000000000000000000000000000000000000000000000815260040161056a90611299565b60405180910390fd5b60007f000000000000000000000000000000000000000000000000000000000000000073ffffffffffffffffffffffffffffffffffffffff1662fdd58e33886040518363ffffffff1660e01b81526004016105cf9291906112b9565b602060405180830381865afa1580156105ec573d6000803e3d6000fd5b505050506040513d601f19601f8201168201806040525081019061061091906112e2565b11610650576040517f08c379a00000000000000000000000000000000000000000000000000000000081526004016106479061135b565b60405180910390fd5b7f000000000000000000000000000000000000000000000000000000000000000073ffffffffffffffffffffffffffffffffffffffff166386eb830386336040518363ffffffff1660e01b81526004016106ab929190610d27565b600060405180830381600087803b1580156106c557600080fd5b505af11580156106d9573d6000803e3d6000fd5b5050505060018060008781526020019081526020016000206000868152602001908152602001600020600082825461071191906113aa565b9250508190555083857ffe9b9fe32c3fe66775687ffbbb055de4489a6f99a6d31665430849156e8d7435336040516107499190610ac2565b60405180910390a35050505050565b6107606108b4565b600073ffffffffffffffffffffffffffffffffffffffff168173ffffffffffffffffffffffffffffffffffffffff16036107d25760006040517f1e4fbdf70000000000000000000000000000000000000000000000000000000081526004016107c99190610ac2565b60405180910390fd5b6107db8161093b565b50565b6107e66108b4565b7f000000000000000000000000000000000000000000000000000000000000000073ffffffffffffffffffffffffffffffffffffffff1663d16dd9af8484846040518463ffffffff1660e01b8152600401610843939291906114a1565b600060405180830381600087803b15801561085d57600080fd5b505af1158015610871573d6000803e3d6000fd5b50505050827f9c3a44e8269e31a42d9e392baf6017d74b30310341be323131a7462a6565190883836040516108a79291906114d3565b60405180910390a2505050565b6108bc6109ff565b73ffffffffffffffffffffffffffffffffffffffff166108da6101d6565b73ffffffffffffffffffffffffffffffffffffffff1614610939576108fd6109ff565b6040517f118cdaa70000000000000000000000000000000000000000000000000000000081526004016109309190610ac2565b60405180910390fd5b565b60008060009054906101000a900473ffffffffffffffffffffffffffffffffffffffff169050816000806101000a81548173ffffffffffffffffffffffffffffffffffffffff021916908373ffffffffffffffffffffffffffffffffffffffff1602179055508173ffffffffffffffffffffffffffffffffffffffff168173ffffffffffffffffffffffffffffffffffffffff167f8be0079c531659141344cd1fd0a4f28419497f9722a3daafe3b4186f6b6457e060405160405180910390a35050565b600033905090565b600073ffffffffffffffffffffffffffffffffffffffff82169050919050565b6000819050919050565b6000610a4c610a47610a4284610a07565b610a27565b610a07565b9050919050565b6000610a5e82610a31565b9050919050565b6000610a7082610a53565b9050919050565b610a8081610a65565b82525050565b6000602082019050610a9b6000830184610a77565b92915050565b6000610aac82610a07565b9050919050565b610abc81610aa1565b82525050565b6000602082019050610ad76000830184610ab3565b92915050565b6000604051905090565b600080fd5b600080fd5b6000819050919050565b610b0481610af1565b8114610b0f57600080fd5b50565b600081359050610b2181610afb565b92915050565b60008060408385031215610b3e57610b3d610ae7565b5b6000610b4c85828601610b12565b9250506020610b5d85828601610b12565b9150509250929050565b610b7081610af1565b82525050565b6000602082019050610b8b6000830184610b67565b92915050565b6000610b9c82610a53565b9050919050565b610bac81610b91565b82525050565b6000602082019050610bc76000830184610ba3565b92915050565b6000610bd882610a53565b9050919050565b610be881610bcd565b82525050565b6000602082019050610c036000830184610bdf565b92915050565b610c1281610aa1565b8114610c1d57600080fd5b50565b600081359050610c2f81610c09565b92915050565b600060208284031215610c4b57610c4a610ae7565b5b6000610c5984828501610c20565b91505092915050565b600080fd5b600080fd5b600080fd5b60008083601f840112610c8757610c86610c62565b5b8235905067ffffffffffffffff811115610ca457610ca3610c67565b5b602083019150836020820283011115610cc057610cbf610c6c565b5b9250929050565b600080600060408486031215610ce057610cdf610ae7565b5b6000610cee86828701610b12565b935050602084013567ffffffffffffffff811115610d0f57610d0e610aec565b5b610d1b86828701610c71565b92509250509250925092565b6000604082019050610d3c6000830185610b67565b610d496020830184610ab3565b9392505050565b60008115159050919050565b610d6581610d50565b8114610d7057600080fd5b50565b600081519050610d8281610d5c565b92915050565b600060208284031215610d9e57610d9d610ae7565b5b6000610dac84828501610d73565b91505092915050565b600082825260208201905092915050565b7f4e6f20766f74696e6720746f6b656e0000000000000000000000000000000000600082015250565b6000610dfc600f83610db5565b9150610e0782610dc6565b602082019050919050565b60006020820190508181036000830152610e2b81610def565b9050919050565b600080fd5b6000601f19601f8301169050919050565b7f4e487b7100000000000000000000000000000000000000000000000000000000600052604160045260246000fd5b610e8082610e37565b810181811067ffffffffffffffff82111715610e9f57610e9e610e48565b5b80604052505050565b6000610eb2610add565b9050610ebe8282610e77565b919050565b600080fd5b600080fd5b600067ffffffffffffffff821115610ee857610ee7610e48565b5b610ef182610e37565b9050602081019050919050565b60005b83811015610f1c578082015181840152602081019050610f01565b60008484015250505050565b6000610f3b610f3684610ecd565b610ea8565b905082815260208101848484011115610f5757610f56610ec8565b5b610f62848285610efe565b509392505050565b600082601f830112610f7f57610f7e610c62565b5b8151610f8f848260208601610f28565b91505092915050565b600081519050610fa781610afb565b92915050565b600060808284031215610fc357610fc2610e32565b5b610fcd6080610ea8565b9050600082015167ffffffffffffffff811115610fed57610fec610ec3565b5b610ff984828501610f6a565b600083015250602082015167ffffffffffffffff81111561101d5761101c610ec3565b5b61102984828501610f6a565b602083015250604061103d84828501610f98565b604083015250606061105184828501610f98565b60608301525092915050565b60006020828403121561107357611072610ae7565b5b600082015167ffffffffffffffff81111561109157611090610aec565b5b61109d84828501610fad565b91505092915050565b7f4e6f742061637469766500000000000000000000000000000000000000000000600082015250565b60006110dc600a83610db5565b91506110e7826110a6565b602082019050919050565b6000602082019050818103600083015261110b816110cf565b9050919050565b600067ffffffffffffffff82111561112d5761112c610e48565b5b602082029050602081019050919050565b600061115161114c84611112565b610ea8565b9050808382526020820190506020840283018581111561117457611173610c6c565b5b835b8181101561119d57806111898882610f98565b845260208401935050602081019050611176565b5050509392505050565b600082601f8301126111bc576111bb610c62565b5b81516111cc84826020860161113e565b91505092915050565b6000602082840312156111eb576111ea610ae7565b5b600082015167ffffffffffffffff81111561120957611208610aec565b5b611215848285016111a7565b91505092915050565b7f4e487b7100000000000000000000000000000000000000000000000000000000600052603260045260246000fd5b7f43616e646964617465206e6f7420696e20656c656374696f6e00000000000000600082015250565b6000611283601983610db5565b915061128e8261124d565b602082019050919050565b600060208201905081810360008301526112b281611276565b9050919050565b60006040820190506112ce6000830185610ab3565b6112db6020830184610b67565b9392505050565b6000602082840312156112f8576112f7610ae7565b5b600061130684828501610f98565b91505092915050565b7f416c726561647920766f746564206f72206e6f20746f6b656e00000000000000600082015250565b6000611345601983610db5565b91506113508261130f565b602082019050919050565b6000602082019050818103600083015261137481611338565b9050919050565b7f4e487b7100000000000000000000000000000000000000000000000000000000600052601160045260246000fd5b60006113b582610af1565b91506113c083610af1565b92508282019050808211156113d8576113d761137b565b5b92915050565b600082825260208201905092915050565b6000819050919050565b61140281610aa1565b82525050565b600061141483836113f9565b60208301905092915050565b600061142f6020840184610c20565b905092915050565b6000602082019050919050565b600061145083856113de565b935061145b826113ef565b8060005b85811015611494576114718284611420565b61147b8882611408565b975061148683611437565b92505060018101905061145f565b5085925050509392505050565b60006040820190506114b66000830186610b67565b81810360208301526114c9818486611444565b9050949350505050565b600060208201905081810360008301526114ee818486611444565b9050939250505056fea26469706673582212207fd445b5793c7d8eae66689de1788607d6ac4d12407317b6329c83a4226d9ebe64736f6c63430008180033",
  "linkReferences": {},
  "deployedLinkReferences": {}
}