{
  "_format": "hh-sol-artifact-1",
  "contractName": "Ballot",
  "sourceName": "contracts/Ballot.sol",
  "abi": [
    {
      "inputs": [
        {
          "internalType": "address",
          "name": "_vr",
          "type": "address"
        },
        {
          "internalType": "address",
          "name": "_cm",
          "type": "address"
        },
        {
          "internalType": "address",
          "name": "_em",
          "type": "address"
        }
      ],
      "stateMutability": "nonpayable",
      "type": "constructor"
    },
    {
      "inputs": [
        {
          "internalType": "address",
          "name": "owner",
          "type": "address"
        }
      ],
      "name": "OwnableInvalidOwner",
      "type": "error"
    },
    {
      "inputs": [
        {
          "internalType": "address",
          "name": "account",
          "type": "address"
        }
      ],
      "name": "OwnableUnauthorizedAccount",
      "type": "error"
    },
    {
      "anonymous": false,
      "inputs": [
        {
          "indexed": true,
          "internalType": "address",
          "name": "previousOwner",
          "type": "address"
        },
        {
          "indexed": true,
          "internalType": "address",
          "name": "newOwner",
          "type": "address"
        }
      ],
      "name": "OwnershipTransferred",
      "type": "event"
    },
    {
      "anonymous": false,
      "inputs": [
        {
          "indexed": true,
          "internalType": "uint256",
          "name": "electionId",
          "type": "uint256"
        },
        {
          "indexed": true,
          "internalType": "uint256",
          "name": "candidateId",
          "type": "uint256"
        },
        {
          "indexed": false,
          "internalType": "address",
          "name": "voter",
          "type": "address"
        }
      ],
      "name": "VoteCasted",
      "type": "event"
    },
    {
      "anonymous": false,
      "inputs": [
        {
          "indexed": true,
          "internalType": "uint256",
          "name": "electionId",
          "type": "uint256"
        },
        {
          "indexed": false,
          "internalType": "address[]",
          "name": "voters",
          "type": "address[]"
        }
      ],
      "name": "VotersAdded",
      "type": "event"
    },
    {
      "inputs": [
        {
          "internalType": "uint256",
          "name": "electionId",
          "type": "uint256"
        },
        {
          "internalType": "address[]",
          "name": "voters",
          "type": "address[]"
        }
      ],
      "name": "addVoters",
      "outputs": [],
      "stateMutability": "nonpayable",
      "type": "function"
    },
    {
      "inputs": [],
      "name": "cm",
      "outputs": [
        {
          "internalType": "contract CandidateManager",
          "name": "",
          "type": "address"
        }
      ],
      "stateMutability": "view",
      "type": "function"
    },
    {
      "inputs": [],
      "name": "em",
      "outputs": [
        {
          "internalType": "contract ElectionManager",
          "name": "",
          "type": "address"
        }
      ],
      "stateMutability": "view",
      "type": "function"
    },
    {
      "inputs": [
        {
          "internalType": "uint256",
          "name": "electionId",
          "type": "uint256"
        },
        {
          "internalType": "uint256",
          "name": "candidateId",
          "type": "uint256"
        }
      ],
      "name": "getVotes",
      "outputs": [
        {
          "internalType": "uint256",
          "name": "",
          "type": "uint256"
        }
      ],
      "stateMutability": "view",
      "type": "function"
    },
    {
      "inputs": [
        {
          "internalType": "uint256",
          "name": "",
          "type": "uint256"
        },
        {
          "internalType": "address",
          "name": "",
          "type": "address"
        }
      ],
      "name": "hasVoted",
      "outputs": [
        {
          "internalType": "bool",
          "name": "",
          "type": "bool"
        }
      ],
      "stateMutability": "view",
      "type": "function"
    },
    {
      "inputs": [],
      "name": "owner",
      "outputs": [
        {
          "internalType": "address",
          "name": "",
          "type": "address"
        }
      ],
      "stateMutability": "view",
      "type": "function"
    },
    {
      "inputs": [],
      "name": "renounceOwnership",
      "outputs": [],
      "stateMutability": "nonpayable",
      "type": "function"
    },
    {
      "inputs": [
        {
          "internalType": "address",
          "name": "newOwner",
          "type": "address"
        }
      ],
      "name": "transferOwnership",
      "outputs": [],
      "stateMutability": "nonpayable",
      "type": "function"
    },
    {
      "inputs": [
        {
          "internalType": "uint256",
          "name": "electionId",
          "type": "uint256"
        },
        {
          "internalType": "uint256",
          "name": "candidateId",
          "type": "uint256"
        }
      ],
      "name": "vote",
      "outputs": [],
      "stateMutability": "nonpayable",
      "type": "function"
    },
    {
      "inputs": [],
      "name": "vr",
      "outputs": [
        {
          "internalType": "contract VoterRegistry",
          "name": "",
          "type": "address"
        }
      ],
      "stateMutability": "view",
      "type": "function"
    }
  ],
  "bytecode": "0x60e06040523480156200001157600080fd5b506040516200194438038062001944833981810160405281019062000037919062000292565b33600073ffffffffffffffffffffffffffffffffffffffff168173ffffffffffffffffffffffffffffffffffffffff1603620000ad5760006040517f1e4fbdf7000000000000000000000000000000000000000000000000000000008152600401620000a49190620002ff565b60405180910390fd5b620000be816200016460201b60201c565b508273ffffffffffffffffffffffffffffffffffffffff1660c08173ffffffffffffffffffffffffffffffffffffffff16815250508173ffffffffffffffffffffffffffffffffffffffff1660a08173ffffffffffffffffffffffffffffffffffffffff16815250508073ffffffffffffffffffffffffffffffffffffffff1660808173ffffffffffffffffffffffffffffffffffffffff16815250505050506200031c565b60008060009054906101000a900473ffffffffffffffffffffffffffffffffffffffff169050816000806101000a81548173ffffffffffffffffffffffffffffffffffffffff021916908373ffffffffffffffffffffffffffffffffffffffff1602179055508173ffffffffffffffffffffffffffffffffffffffff168173ffffffffffffffffffffffffffffffffffffffff167f8be0079c531659141344cd1fd0a4f28419497f9722a3daafe3b4186f6b6457e060405160405180910390a35050565b600080fd5b600073ffffffffffffffffffffffffffffffffffffffff82169050919050565b60006200025a826200022d565b9050919050565b6200026c816200024d565b81146200027857600080fd5b50565b6000815190506200028c8162000261565b92915050565b600080600060608486031215620002ae57620002ad62000228565b5b6000620002be868287016200027b565b9350506020620002d1868287016200027b565b9250506040620002e4868287016200027b565b9150509250925092565b620002f9816200024d565b82525050565b6000602082019050620003166000830184620002ee565b92915050565b60805160a05160c0516115d56200036f600039600081816101db015281816102e20152818161067d015261087c0152600061029a0152600081816102be015281816103bf01526104b901526115d56000f3fe608060405234801561001057600080fd5b506004361061009e5760003560e01c806393181620116100665780639318162014610149578063b0074de514610167578063b384abef14610185578063f2fde38b146101a1578063f45969c6146101bd5761009e565b8063332970a5146100a357806343859632146100c1578063715018a6146100f15780638da5cb5b146100fb57806391f3663314610119575b600080fd5b6100ab6101d9565b6040516100b89190610b1a565b60405180910390f35b6100db60048036038101906100d69190610bbd565b6101fd565b6040516100e89190610c18565b60405180910390f35b6100f961022c565b005b610103610240565b6040516101109190610c42565b60405180910390f35b610133600480360381019061012e9190610c5d565b610269565b6040516101409190610cac565b60405180910390f35b610151610298565b60405161015e9190610ce8565b60405180910390f35b61016f6102bc565b60405161017c9190610d24565b60405180910390f35b61019f600480360381019061019a9190610c5d565b6102e0565b005b6101bb60048036038101906101b69190610d3f565b6107ec565b005b6101d760048036038101906101d29190610dd1565b610872565b005b7f000000000000000000000000000000000000000000000000000000000000000081565b60016020528160005260406000206020528060005260406000206000915091509054906101000a900460ff1681565b610234610948565b61023e60006109cf565b565b60008060009054906101000a900473ffffffffffffffffffffffffffffffffffffffff16905090565b600060026000848152602001908152602001600020600083815260200190815260200160002054905092915050565b7f000000000000000000000000000000000000000000000000000000000000000081565b7f000000000000000000000000000000000000000000000000000000000000000081565b7f000000000000000000000000000000000000000000000000000000000000000073ffffffffffffffffffffffffffffffffffffffff1663592e0e0083336040518363ffffffff1660e01b815260040161033b929190610e31565b602060405180830381865afa158015610358573d6000803e3d6000fd5b505050506040513d601f19601f8201168201806040525081019061037c9190610e86565b6103bb576040517f08c379a00000000000000000000000000000000000000000000000000000000081526004016103b290610f10565b60405180910390fd5b60007f000000000000000000000000000000000000000000000000000000000000000073ffffffffffffffffffffffffffffffffffffffff16639d710777846040518263ffffffff1660e01b81526004016104169190610cac565b600060405180830381865afa158015610433573d6000803e3d6000fd5b505050506040513d6000823e3d601f19601f8201168201806040525081019061045c919061115b565b905080604001514210158015610476575080606001514211155b6104b5576040517f08c379a00000000000000000000000000000000000000000000000000000000081526004016104ac906111f0565b60405180910390fd5b60007f000000000000000000000000000000000000000000000000000000000000000073ffffffffffffffffffffffffffffffffffffffff16635e12845e856040518263ffffffff1660e01b81526004016105109190610cac565b600060405180830381865afa15801561052d573d6000803e3d6000fd5b505050506040513d6000823e3d601f19601f8201168201806040525081019061055691906112d3565b90506000805b825181101561059c57848382815181106105795761057861131c565b5b60200260200101510361058f576001915061059c565b808060010191505061055c565b50806105dd576040517f08c379a00000000000000000000000000000000000000000000000000000000081526004016105d490611397565b60405180910390fd5b6001600086815260200190815260200160002060003373ffffffffffffffffffffffffffffffffffffffff1673ffffffffffffffffffffffffffffffffffffffff16815260200190815260200160002060009054906101000a900460ff161561067b576040517f08c379a000000000000000000000000000000000000000000000000000000000815260040161067290611403565b60405180910390fd5b7f000000000000000000000000000000000000000000000000000000000000000073ffffffffffffffffffffffffffffffffffffffff166386eb830386336040518363ffffffff1660e01b81526004016106d6929190610e31565b600060405180830381600087803b1580156106f057600080fd5b505af1158015610704573d6000803e3d6000fd5b505050506001600260008781526020019081526020016000206000868152602001908152602001600020600082825461073d9190611452565b92505081905550600180600087815260200190815260200160002060003373ffffffffffffffffffffffffffffffffffffffff1673ffffffffffffffffffffffffffffffffffffffff16815260200190815260200160002060006101000a81548160ff02191690831515021790555083857ffe9b9fe32c3fe66775687ffbbb055de4489a6f99a6d31665430849156e8d7435336040516107dd9190610c42565b60405180910390a35050505050565b6107f4610948565b600073ffffffffffffffffffffffffffffffffffffffff168173ffffffffffffffffffffffffffffffffffffffff16036108665760006040517f1e4fbdf700000000000000000000000000000000000000000000000000000000815260040161085d9190610c42565b60405180910390fd5b61086f816109cf565b50565b61087a610948565b7f000000000000000000000000000000000000000000000000000000000000000073ffffffffffffffffffffffffffffffffffffffff1663d16dd9af8484846040518463ffffffff1660e01b81526004016108d793929190611549565b600060405180830381600087803b1580156108f157600080fd5b505af1158015610905573d6000803e3d6000fd5b50505050827f9c3a44e8269e31a42d9e392baf6017d74b30310341be323131a7462a65651908838360405161093b92919061157b565b60405180910390a2505050565b610950610a93565b73ffffffffffffffffffffffffffffffffffffffff1661096e610240565b73ffffffffffffffffffffffffffffffffffffffff16146109cd57610991610a93565b6040517f118cdaa70000000000000000000000000000000000000000000000000000000081526004016109c49190610c42565b60405180910390fd5b565b60008060009054906101000a900473ffffffffffffffffffffffffffffffffffffffff169050816000806101000a81548173ffffffffffffffffffffffffffffffffffffffff021916908373ffffffffffffffffffffffffffffffffffffffff1602179055508173ffffffffffffffffffffffffffffffffffffffff168173ffffffffffffffffffffffffffffffffffffffff167f8be0079c531659141344cd1fd0a4f28419497f9722a3daafe3b4186f6b6457e060405160405180910390a35050565b600033905090565b600073ffffffffffffffffffffffffffffffffffffffff82169050919050565b6000819050919050565b6000610ae0610adb610ad684610a9b565b610abb565b610a9b565b9050919050565b6000610af282610ac5565b9050919050565b6000610b0482610ae7565b9050919050565b610b1481610af9565b82525050565b6000602082019050610b2f6000830184610b0b565b92915050565b6000604051905090565b600080fd5b600080fd5b6000819050919050565b610b5c81610b49565b8114610b6757600080fd5b50565b600081359050610b7981610b53565b92915050565b6000610b8a82610a9b565b9050919050565b610b9a81610b7f565b8114610ba557600080fd5b50565b600081359050610bb781610b91565b92915050565b60008060408385031215610bd457610bd3610b3f565b5b6000610be285828601610b6a565b9250506020610bf385828601610ba8565b9150509250929050565b60008115159050919050565b610c1281610bfd565b82525050565b6000602082019050610c2d6000830184610c09565b92915050565b610c3c81610b7f565b82525050565b6000602082019050610c576000830184610c33565b92915050565b60008060408385031215610c7457610c73610b3f565b5b6000610c8285828601610b6a565b9250506020610c9385828601610b6a565b9150509250929050565b610ca681610b49565b82525050565b6000602082019050610cc16000830184610c9d565b92915050565b6000610cd282610ae7565b9050919050565b610ce281610cc7565b82525050565b6000602082019050610cfd6000830184610cd9565b92915050565b6000610d0e82610ae7565b9050919050565b610d1e81610d03565b82525050565b6000602082019050610d396000830184610d15565b92915050565b600060208284031215610d5557610d54610b3f565b5b6000610d6384828501610ba8565b91505092915050565b600080fd5b600080fd5b600080fd5b60008083601f840112610d9157610d90610d6c565b5b8235905067ffffffffffffffff811115610dae57610dad610d71565b5b602083019150836020820283011115610dca57610dc9610d76565b5b9250929050565b600080600060408486031215610dea57610de9610b3f565b5b6000610df886828701610b6a565b935050602084013567ffffffffffffffff811115610e1957610e18610b44565b5b610e2586828701610d7b565b92509250509250925092565b6000604082019050610e466000830185610c9d565b610e536020830184610c33565b9392505050565b610e6381610bfd565b8114610e6e57600080fd5b50565b600081519050610e8081610e5a565b92915050565b600060208284031215610e9c57610e9b610b3f565b5b6000610eaa84828501610e71565b91505092915050565b600082825260208201905092915050565b7f4e6f20766f74696e6720746f6b656e0000000000000000000000000000000000600082015250565b6000610efa600f83610eb3565b9150610f0582610ec4565b602082019050919050565b60006020820190508181036000830152610f2981610eed565b9050919050565b600080fd5b6000601f19601f8301169050919050565b7f4e487b7100000000000000000000000000000000000000000000000000000000600052604160045260246000fd5b610f7e82610f35565b810181811067ffffffffffffffff82111715610f9d57610f9c610f46565b5b80604052505050565b6000610fb0610b35565b9050610fbc8282610f75565b919050565b600080fd5b600080fd5b600067ffffffffffffffff821115610fe657610fe5610f46565b5b610fef82610f35565b9050602081019050919050565b60005b8381101561101a578082015181840152602081019050610fff565b60008484015250505050565b600061103961103484610fcb565b610fa6565b90508281526020810184848401111561105557611054610fc6565b5b611060848285610ffc565b509392505050565b600082601f83011261107d5761107c610d6c565b5b815161108d848260208601611026565b91505092915050565b6000815190506110a581610b53565b92915050565b6000608082840312156110c1576110c0610f30565b5b6110cb6080610fa6565b9050600082015167ffffffffffffffff8111156110eb576110ea610fc1565b5b6110f784828501611068565b600083015250602082015167ffffffffffffffff81111561111b5761111a610fc1565b5b61112784828501611068565b602083015250604061113b84828501611096565b604083015250606061114f84828501611096565b60608301525092915050565b60006020828403121561117157611170610b3f565b5b600082015167ffffffffffffffff81111561118f5761118e610b44565b5b61119b848285016110ab565b91505092915050565b7f4e6f742061637469766500000000000000000000000000000000000000000000600082015250565b60006111da600a83610eb3565b91506111e5826111a4565b602082019050919050565b60006020820190508181036000830152611209816111cd565b9050919050565b600067ffffffffffffffff82111561122b5761122a610f46565b5b602082029050602081019050919050565b600061124f61124a84611210565b610fa6565b9050808382526020820190506020840283018581111561127257611271610d76565b5b835b8181101561129b57806112878882611096565b845260208401935050602081019050611274565b5050509392505050565b600082601f8301126112ba576112b9610d6c565b5b81516112ca84826020860161123c565b91505092915050565b6000602082840312156112e9576112e8610b3f565b5b600082015167ffffffffffffffff81111561130757611306610b44565b5b611313848285016112a5565b91505092915050565b7f4e487b7100000000000000000000000000000000000000000000000000000000600052603260045260246000fd5b7f43616e646964617465206e6f7420696e20656c656374696f6e00000000000000600082015250565b6000611381601983610eb3565b915061138c8261134b565b602082019050919050565b600060208201905081810360008301526113b081611374565b9050919050565b7f416c726561647920766f74656400000000000000000000000000000000000000600082015250565b60006113ed600d83610eb3565b91506113f8826113b7565b602082019050919050565b6000602082019050818103600083015261141c816113e0565b9050919050565b7f4e487b7100000000000000000000000000000000000000000000000000000000600052601160045260246000fd5b600061145d82610b49565b915061146883610b49565b92508282019050808211156114805761147f611423565b5b92915050565b600082825260208201905092915050565b6000819050919050565b6114aa81610b7f565b82525050565b60006114bc83836114a1565b60208301905092915050565b60006114d76020840184610ba8565b905092915050565b6000602082019050919050565b60006114f88385611486565b935061150382611497565b8060005b8581101561153c5761151982846114c8565b61152388826114b0565b975061152e836114df565b925050600181019050611507565b5085925050509392505050565b600060408201905061155e6000830186610c9d565b81810360208301526115718184866114ec565b9050949350505050565b600060208201905081810360008301526115968184866114ec565b9050939250505056fea2646970667358221220464790b5e430fdf0272649f0d76ebf628cb8d3bd0076596da0b804f266cd70e964736f6c63430008180033",
  "linkReferences": {},
  "deployedLinkReferences": {}
}