{
  "_format": "hh-sol-artifact-1",
  "contractName": "CandidateManager",
  "sourceName": "contracts/CandidateManager.sol",
  "abi": [
    {
      "inputs": [],
      "stateMutability": "nonpayable",
      "type": "constructor"
    },
    {
      "inputs": [
        {
          "internalType": "address",
          "name": "sender",
          "type": "address"
        },
        {
          "internalType": "uint256",
          "name": "tokenId",
          "type": "uint256"
        },
        {
          "internalType": "address",
          "name": "owner",
          "type": "address"
        }
      ],
      "name": "ERC721IncorrectOwner",
      "type": "error"
    },
    {
      "inputs": [
        {
          "internalType": "address",
          "name": "operator",
          "type": "address"
        },
        {
          "internalType": "uint256",
          "name": "tokenId",
          "type": "uint256"
        }
      ],
      "name": "ERC721InsufficientApproval",
      "type": "error"
    },
    {
      "inputs": [
        {
          "internalType": "address",
          "name": "approver",
          "type": "address"
        }
      ],
      "name": "ERC721InvalidApprover",
      "type": "error"
    },
    {
      "inputs": [
        {
          "internalType": "address",
          "name": "operator",
          "type": "address"
        }
      ],
      "name": "ERC721InvalidOperator",
      "type": "error"
    },
    {
      "inputs": [
        {
          "internalType": "address",
          "name": "owner",
          "type": "address"
        }
      ],
      "name": "ERC721InvalidOwner",
      "type": "error"
    },
    {
      "inputs": [
        {
          "internalType": "address",
          "name": "receiver",
          "type": "address"
        }
      ],
      "name": "ERC721InvalidReceiver",
      "type": "error"
    },
    {
      "inputs": [
        {
          "internalType": "address",
          "name": "sender",
          "type": "address"
        }
      ],
      "name": "ERC721InvalidSender",
      "type": "error"
    },
    {
      "inputs": [
        {
          "internalType": "uint256",
          "name": "tokenId",
          "type": "uint256"
        }
      ],
      "name": "ERC721NonexistentToken",
      "type": "error"
    },
    {
      "inputs": [
        {
          "internalType": "address",
          "name": "owner",
          "type": "address"
        }
      ],
      "name": "OwnableInvalidOwner",
      "type": "error"
    },
    {
      "inputs": [
        {
          "internalType": "address",
          "name": "account",
          "type": "address"
        }
      ],
      "name": "OwnableUnauthorizedAccount",
      "type": "error"
    },
    {
      "anonymous": false,
      "inputs": [
        {
          "indexed": true,
          "internalType": "address",
          "name": "owner",
          "type": "address"
        },
        {
          "indexed": true,
          "internalType": "address",
          "name": "approved",
          "type": "address"
        },
        {
          "indexed": true,
          "internalType": "uint256",
          "name": "tokenId",
          "type": "uint256"
        }
      ],
      "name": "Approval",
      "type": "event"
    },
    {
      "anonymous": false,
      "inputs": [
        {
          "indexed": true,
          "internalType": "address",
          "name": "owner",
          "type": "address"
        },
        {
          "indexed": true,
          "internalType": "address",
          "name": "operator",
          "type": "address"
        },
        {
          "indexed": false,
          "internalType": "bool",
          "name": "approved",
          "type": "bool"
        }
      ],
      "name": "ApprovalForAll",
      "type": "event"
    },
    {
      "anonymous": false,
      "inputs": [
        {
          "indexed": false,
          "internalType": "uint256",
          "name": "_fromTokenId",
          "type": "uint256"
        },
        {
          "indexed": false,
          "internalType": "uint256",
          "name": "_toTokenId",
          "type": "uint256"
        }
      ],
      "name": "BatchMetadataUpdate",
      "type": "event"
    },
    {
      "anonymous": false,
      "inputs": [
        {
          "indexed": true,
          "internalType": "uint256",
          "name": "id",
          "type": "uint256"
        },
        {
          "indexed": false,
          "internalType": "string",
          "name": "candidateName",
          "type": "string"
        },
        {
          "indexed": false,
          "internalType": "string",
          "name": "metadataURI",
          "type": "string"
        }
      ],
      "name": "CandidateAdded",
      "type": "event"
    },
    {
      "anonymous": false,
      "inputs": [
        {
          "indexed": false,
          "internalType": "uint256",
          "name": "_tokenId",
          "type": "uint256"
        }
      ],
      "name": "MetadataUpdate",
      "type": "event"
    },
    {
      "anonymous": false,
      "inputs": [
        {
          "indexed": true,
          "internalType": "address",
          "name": "previousOwner",
          "type": "address"
        },
        {
          "indexed": true,
          "internalType": "address",
          "name": "newOwner",
          "type": "address"
        }
      ],
      "name": "OwnershipTransferred",
      "type": "event"
    },
    {
      "anonymous": false,
      "inputs": [
        {
          "indexed": true,
          "internalType": "address",
          "name": "from",
          "type": "address"
        },
        {
          "indexed": true,
          "internalType": "address",
          "name": "to",
          "type": "address"
        },
        {
          "indexed": true,
          "internalType": "uint256",
          "name": "tokenId",
          "type": "uint256"
        }
      ],
      "name": "Transfer",
      "type": "event"
    },
    {
      "inputs": [
        {
          "internalType": "string",
          "name": "candidateName",
          "type": "string"
        },
        {
          "internalType": "string",
          "name": "description",
          "type": "string"
        },
        {
          "internalType": "string",
          "name": "metadataURI",
          "type": "string"
        }
      ],
      "name": "addCandidate",
      "outputs": [
        {
          "internalType": "uint256",
          "name": "",
          "type": "uint256"
        }
      ],
      "stateMutability": "nonpayable",
      "type": "function"
    },
    {
      "inputs": [
        {
          "internalType": "address",
          "name": "to",
          "type": "address"
        },
        {
          "internalType": "uint256",
          "name": "tokenId",
          "type": "uint256"
        }
      ],
      "name": "approve",
      "outputs": [],
      "stateMutability": "nonpayable",
      "type": "function"
    },
    {
      "inputs": [
        {
          "internalType": "address",
          "name": "owner",
          "type": "address"
        }
      ],
      "name": "balanceOf",
      "outputs": [
        {
          "internalType": "uint256",
          "name": "",
          "type": "uint256"
        }
      ],
      "stateMutability": "view",
      "type": "function"
    },
    {
      "inputs": [
        {
          "internalType": "uint256",
          "name": "candidateId",
          "type": "uint256"
        }
      ],
      "name": "candidateExists",
      "outputs": [
        {
          "internalType": "bool",
          "name": "",
          "type": "bool"
        }
      ],
      "stateMutability": "view",
      "type": "function"
    },
    {
      "inputs": [
        {
          "internalType": "uint256",
          "name": "",
          "type": "uint256"
        }
      ],
      "name": "candidates",
      "outputs": [
        {
          "internalType": "uint256",
          "name": "id",
          "type": "uint256"
        },
        {
          "internalType": "string",
          "name": "name",
          "type": "string"
        },
        {
          "internalType": "string",
          "name": "description",
          "type": "string"
        },
        {
          "internalType": "string",
          "name": "metadataURI",
          "type": "string"
        },
        {
          "internalType": "bool",
          "name": "exists",
          "type": "bool"
        }
      ],
      "stateMutability": "view",
      "type": "function"
    },
    {
      "inputs": [
        {
          "internalType": "uint256",
          "name": "tokenId",
          "type": "uint256"
        }
      ],
      "name": "getApproved",
      "outputs": [
        {
          "internalType": "address",
          "name": "",
          "type": "address"
        }
      ],
      "stateMutability": "view",
      "type": "function"
    },
    {
      "inputs": [
        {
          "internalType": "uint256",
          "name": "candidateId",
          "type": "uint256"
        }
      ],
      "name": "getCandidate",
      "outputs": [
        {
          "components": [
            {
              "internalType": "uint256",
              "name": "id",
              "type": "uint256"
            },
            {
              "internalType": "string",
              "name": "name",
              "type": "string"
            },
            {
              "internalType": "string",
              "name": "description",
              "type": "string"
            },
            {
              "internalType": "string",
              "name": "metadataURI",
              "type": "string"
            },
            {
              "internalType": "bool",
              "name": "exists",
              "type": "bool"
            }
          ],
          "internalType": "struct CandidateManager.Candidate",
          "name": "",
          "type": "tuple"
        }
      ],
      "stateMutability": "view",
      "type": "function"
    },
    {
      "inputs": [
        {
          "internalType": "address",
          "name": "owner",
          "type": "address"
        },
        {
          "internalType": "address",
          "name": "operator",
          "type": "address"
        }
      ],
      "name": "isApprovedForAll",
      "outputs": [
        {
          "internalType": "bool",
          "name": "",
          "type": "bool"
        }
      ],
      "stateMutability": "view",
      "type": "function"
    },
    {
      "inputs": [],
      "name": "name",
      "outputs": [
        {
          "internalType": "string",
          "name": "",
          "type": "string"
        }
      ],
      "stateMutability": "view",
      "type": "function"
    },
    {
      "inputs": [],
      "name": "owner",
      "outputs": [
        {
          "internalType": "address",
          "name": "",
          "type": "address"
        }
      ],
      "stateMutability": "view",
      "type": "function"
    },
    {
      "inputs": [
        {
          "internalType": "uint256",
          "name": "tokenId",
          "type": "uint256"
        }
      ],
      "name": "ownerOf",
      "outputs": [
        {
          "internalType": "address",
          "name": "",
          "type": "address"
        }
      ],
      "stateMutability": "view",
      "type": "function"
    },
    {
      "inputs": [],
      "name": "renounceOwnership",
      "outputs": [],
      "stateMutability": "nonpayable",
      "type": "function"
    },
    {
      "inputs": [
        {
          "internalType": "address",
          "name": "from",
          "type": "address"
        },
        {
          "internalType": "address",
          "name": "to",
          "type": "address"
        },
        {
          "internalType": "uint256",
          "name": "tokenId",
          "type": "uint256"
        }
      ],
      "name": "safeTransferFrom",
      "outputs": [],
      "stateMutability": "nonpayable",
      "type": "function"
    },
    {
      "inputs": [
        {
          "internalType": "address",
          "name": "from",
          "type": "address"
        },
        {
          "internalType": "address",
          "name": "to",
          "type": "address"
        },
        {
          "internalType": "uint256",
          "name": "tokenId",
          "type": "uint256"
        },
        {
          "internalType": "bytes",
          "name": "data",
          "type": "bytes"
        }
      ],
      "name": "safeTransferFrom",
      "outputs": [],
      "stateMutability": "nonpayable",
      "type": "function"
    },
    {
      "inputs": [
        {
          "internalType": "address",
          "name": "operator",
          "type": "address"
        },
        {
          "internalType": "bool",
          "name": "approved",
          "type": "bool"
        }
      ],
      "name": "setApprovalForAll",
      "outputs": [],
      "stateMutability": "nonpayable",
      "type": "function"
    },
    {
      "inputs": [
        {
          "internalType": "bytes4",
          "name": "interfaceId",
          "type": "bytes4"
        }
      ],
      "name": "supportsInterface",
      "outputs": [
        {
          "internalType": "bool",
          "name": "",
          "type": "bool"
        }
      ],
      "stateMutability": "view",
      "type": "function"
    },
    {
      "inputs": [],
      "name": "symbol",
      "outputs": [
        {
          "internalType": "string",
          "name": "",
          "type": "string"
        }
      ],
      "stateMutability": "view",
      "type": "function"
    },
    {
      "inputs": [
        {
          "internalType": "uint256",
          "name": "tokenId",
          "type": "uint256"
        }
      ],
      "name": "tokenURI",
      "outputs": [
        {
          "internalType": "string",
          "name": "",
          "type": "string"
        }
      ],
      "stateMutability": "view",
      "type": "function"
    },
    {
      "inputs": [
        {
          "internalType": "address",
          "name": "from",
          "type": "address"
        },
        {
          "internalType": "address",
          "name": "to",
          "type": "address"
        },
        {
          "internalType": "uint256",
          "name": "tokenId",
          "type": "uint256"
        }
      ],
      "name": "transferFrom",
      "outputs": [],
      "stateMutability": "nonpayable",
      "type": "function"
    },
    {
      "inputs": [
        {
          "internalType": "address",
          "name": "newOwner",
          "type": "address"
        }
      ],
      "name": "transferOwnership",
      "outputs": [],
      "stateMutability": "nonpayable",
      "type": "function"
    }
  ],
  "bytecode": "0x60806040523480156200001157600080fd5b50336040518060400160405280600c81526020017f43616e6469646174654e465400000000000000000000000000000000000000008152506040518060400160405280600481526020017f434e465400000000000000000000000000000000000000000000000000000000815250816000908162000090919062000472565b508060019081620000a2919062000472565b505050600073ffffffffffffffffffffffffffffffffffffffff168173ffffffffffffffffffffffffffffffffffffffff16036200011a5760006040517f1e4fbdf70000000000000000000000000000000000000000000000000000000081526004016200011191906200059e565b60405180910390fd5b6200012b816200013260201b60201c565b50620005bb565b6000600760009054906101000a900473ffffffffffffffffffffffffffffffffffffffff16905081600760006101000a81548173ffffffffffffffffffffffffffffffffffffffff021916908373ffffffffffffffffffffffffffffffffffffffff1602179055508173ffffffffffffffffffffffffffffffffffffffff168173ffffffffffffffffffffffffffffffffffffffff167f8be0079c531659141344cd1fd0a4f28419497f9722a3daafe3b4186f6b6457e060405160405180910390a35050565b600081519050919050565b7f4e487b7100000000000000000000000000000000000000000000000000000000600052604160045260246000fd5b7f4e487b7100000000000000000000000000000000000000000000000000000000600052602260045260246000fd5b600060028204905060018216806200027a57607f821691505b60208210810362000290576200028f62000232565b5b50919050565b60008190508160005260206000209050919050565b60006020601f8301049050919050565b600082821b905092915050565b600060088302620002fa7fffffffffffffffffffffffffffffffffffffffffffffffffffffffffffffffff82620002bb565b620003068683620002bb565b95508019841693508086168417925050509392505050565b6000819050919050565b6000819050919050565b6000620003536200034d62000347846200031e565b62000328565b6200031e565b9050919050565b6000819050919050565b6200036f8362000332565b620003876200037e826200035a565b848454620002c8565b825550505050565b600090565b6200039e6200038f565b620003ab81848462000364565b505050565b5b81811015620003d357620003c760008262000394565b600181019050620003b1565b5050565b601f8211156200042257620003ec8162000296565b620003f784620002ab565b8101602085101562000407578190505b6200041f6200041685620002ab565b830182620003b0565b50505b505050565b600082821c905092915050565b6000620004476000198460080262000427565b1980831691505092915050565b600062000462838362000434565b9150826002028217905092915050565b6200047d82620001f8565b67ffffffffffffffff81111562000499576200049862000203565b5b620004a5825462000261565b620004b2828285620003d7565b600060209050601f831160018114620004ea5760008415620004d5578287015190505b620004e1858262000454565b86555062000551565b601f198416620004fa8662000296565b60005b828110156200052457848901518255600182019150602085019450602081019050620004fd565b8683101562000544578489015162000540601f89168262000434565b8355505b6001600288020188555050505b505050505050565b600073ffffffffffffffffffffffffffffffffffffffff82169050919050565b6000620005868262000559565b9050919050565b620005988162000579565b82525050565b6000602082019050620005b560008301846200058d565b92915050565b612ee580620005cb6000396000f3fe608060405234801561001057600080fd5b506004361061012c5760003560e01c806370a08231116100ad578063ad71f8dc11610071578063ad71f8dc14610359578063b88d4fde14610389578063c87b56dd146103a5578063e985e9c5146103d5578063f2fde38b146104055761012c565b806370a08231146102c7578063715018a6146102f75780638da5cb5b1461030157806395d89b411461031f578063a22cb4651461033d5761012c565b80633477ee2e116100f45780633477ee2e146101e757806335b8e8201461021b57806342842e0e1461024b5780634a3b8877146102675780636352211e146102975761012c565b806301ffc9a71461013157806306fdde0314610161578063081812fc1461017f578063095ea7b3146101af57806323b872dd146101cb575b600080fd5b61014b600480360381019061014691906120d9565b610421565b6040516101589190612121565b60405180910390f35b610169610482565b60405161017691906121cc565b60405180910390f35b61019960048036038101906101949190612224565b610514565b6040516101a69190612292565b60405180910390f35b6101c960048036038101906101c491906122d9565b610530565b005b6101e560048036038101906101e09190612319565b610546565b005b61020160048036038101906101fc9190612224565b610648565b60405161021295949392919061237b565b60405180910390f35b61023560048036038101906102309190612224565b610823565b60405161024291906124cf565b60405180910390f35b61026560048036038101906102609190612319565b610a8e565b005b610281600480360381019061027c9190612224565b610aae565b60405161028e9190612121565b60405180910390f35b6102b160048036038101906102ac9190612224565b610adb565b6040516102be9190612292565b60405180910390f35b6102e160048036038101906102dc91906124f1565b610aed565b6040516102ee919061251e565b60405180910390f35b6102ff610ba7565b005b610309610bbb565b6040516103169190612292565b60405180910390f35b610327610be5565b60405161033491906121cc565b60405180910390f35b61035760048036038101906103529190612565565b610c77565b005b610373600480360381019061036e91906126da565b610c8d565b604051610380919061251e565b60405180910390f35b6103a3600480360381019061039e9190612822565b610dbb565b005b6103bf60048036038101906103ba9190612224565b610de0565b6040516103cc91906121cc565b60405180910390f35b6103ef60048036038101906103ea91906128a5565b610ef3565b6040516103fc9190612121565b60405180910390f35b61041f600480360381019061041a91906124f1565b610f87565b005b6000634906490660e01b7bffffffffffffffffffffffffffffffffffffffffffffffffffffffff1916827bffffffffffffffffffffffffffffffffffffffffffffffffffffffff1916148061047b575061047a8261100d565b5b9050919050565b60606000805461049190612914565b80601f01602080910402602001604051908101604052809291908181526020018280546104bd90612914565b801561050a5780601f106104df5761010080835404028352916020019161050a565b820191906000526020600020905b8154815290600101906020018083116104ed57829003601f168201915b5050505050905090565b600061051f826110ef565b5061052982611177565b9050919050565b610542828261053d6111b4565b6111bc565b5050565b600073ffffffffffffffffffffffffffffffffffffffff168273ffffffffffffffffffffffffffffffffffffffff16036105b85760006040517f64a0ae920000000000000000000000000000000000000000000000000000000081526004016105af9190612292565b60405180910390fd5b60006105cc83836105c76111b4565b6111ce565b90508373ffffffffffffffffffffffffffffffffffffffff168173ffffffffffffffffffffffffffffffffffffffff1614610642578382826040517f64283d7b00000000000000000000000000000000000000000000000000000000815260040161063993929190612945565b60405180910390fd5b50505050565b600960205280600052604060002060009150905080600001549080600101805461067190612914565b80601f016020809104026020016040519081016040528092919081815260200182805461069d90612914565b80156106ea5780601f106106bf576101008083540402835291602001916106ea565b820191906000526020600020905b8154815290600101906020018083116106cd57829003601f168201915b5050505050908060020180546106ff90612914565b80601f016020809104026020016040519081016040528092919081815260200182805461072b90612914565b80156107785780601f1061074d57610100808354040283529160200191610778565b820191906000526020600020905b81548152906001019060200180831161075b57829003601f168201915b50505050509080600301805461078d90612914565b80601f01602080910402602001604051908101604052809291908181526020018280546107b990612914565b80156108065780601f106107db57610100808354040283529160200191610806565b820191906000526020600020905b8154815290600101906020018083116107e957829003601f168201915b5050505050908060040160009054906101000a900460ff16905085565b61082b61203c565b6009600083815260200190815260200160002060040160009054906101000a900460ff1661088e576040517f08c379a0000000000000000000000000000000000000000000000000000000008152600401610885906129c8565b60405180910390fd5b600960008381526020019081526020016000206040518060a0016040529081600082015481526020016001820180546108c690612914565b80601f01602080910402602001604051908101604052809291908181526020018280546108f290612914565b801561093f5780601f106109145761010080835404028352916020019161093f565b820191906000526020600020905b81548152906001019060200180831161092257829003601f168201915b5050505050815260200160028201805461095890612914565b80601f016020809104026020016040519081016040528092919081815260200182805461098490612914565b80156109d15780601f106109a6576101008083540402835291602001916109d1565b820191906000526020600020905b8154815290600101906020018083116109b457829003601f168201915b505050505081526020016003820180546109ea90612914565b80601f0160208091040260200160405190810160405280929190818152602001828054610a1690612914565b8015610a635780601f10610a3857610100808354040283529160200191610a63565b820191906000526020600020905b815481529060010190602001808311610a4657829003601f168201915b505050505081526020016004820160009054906101000a900460ff1615151515815250509050919050565b610aa983838360405180602001604052806000815250610dbb565b505050565b60006009600083815260200190815260200160002060040160009054906101000a900460ff169050919050565b6000610ae6826110ef565b9050919050565b60008073ffffffffffffffffffffffffffffffffffffffff168273ffffffffffffffffffffffffffffffffffffffff1603610b605760006040517f89c62b64000000000000000000000000000000000000000000000000000000008152600401610b579190612292565b60405180910390fd5b600360008373ffffffffffffffffffffffffffffffffffffffff1673ffffffffffffffffffffffffffffffffffffffff168152602001908152602001600020549050919050565b610baf6113e8565b610bb9600061146f565b565b6000600760009054906101000a900473ffffffffffffffffffffffffffffffffffffffff16905090565b606060018054610bf490612914565b80601f0160208091040260200160405190810160405280929190818152602001828054610c2090612914565b8015610c6d5780601f10610c4257610100808354040283529160200191610c6d565b820191906000526020600020905b815481529060010190602001808311610c5057829003601f168201915b5050505050905090565b610c89610c826111b4565b8383611535565b5050565b6000610c976113e8565b60086000815480929190610caa90612a17565b9190505550600060085490506040518060a001604052808281526020018681526020018581526020018481526020016001151581525060096000838152602001908152602001600020600082015181600001556020820151816001019081610d129190612c0b565b506040820151816002019081610d289190612c0b565b506060820151816003019081610d3e9190612c0b565b5060808201518160040160006101000a81548160ff021916908315150217905550905050610d6c33826116a4565b610d76818461179d565b807fe64f834082661dd9ed89427b87edb6270fd6dad17198b0938f0edd058914c87f8685604051610da8929190612cdd565b60405180910390a2809150509392505050565b610dc6848484610546565b610dda610dd16111b4565b858585856117f9565b50505050565b6060610deb826110ef565b506000600660008481526020019081526020016000208054610e0c90612914565b80601f0160208091040260200160405190810160405280929190818152602001828054610e3890612914565b8015610e855780601f10610e5a57610100808354040283529160200191610e85565b820191906000526020600020905b815481529060010190602001808311610e6857829003601f168201915b505050505090506000610e966119aa565b90506000815103610eab578192505050610eee565b600082511115610ee0578082604051602001610ec8929190612d50565b60405160208183030381529060405292505050610eee565b610ee9846119c1565b925050505b919050565b6000600560008473ffffffffffffffffffffffffffffffffffffffff1673ffffffffffffffffffffffffffffffffffffffff16815260200190815260200160002060008373ffffffffffffffffffffffffffffffffffffffff1673ffffffffffffffffffffffffffffffffffffffff16815260200190815260200160002060009054906101000a900460ff16905092915050565b610f8f6113e8565b600073ffffffffffffffffffffffffffffffffffffffff168173ffffffffffffffffffffffffffffffffffffffff16036110015760006040517f1e4fbdf7000000000000000000000000000000000000000000000000000000008152600401610ff89190612292565b60405180910390fd5b61100a8161146f565b50565b60007f80ac58cd000000000000000000000000000000000000000000000000000000007bffffffffffffffffffffffffffffffffffffffffffffffffffffffff1916827bffffffffffffffffffffffffffffffffffffffffffffffffffffffff191614806110d857507f5b5e139f000000000000000000000000000000000000000000000000000000007bffffffffffffffffffffffffffffffffffffffffffffffffffffffff1916827bffffffffffffffffffffffffffffffffffffffffffffffffffffffff1916145b806110e857506110e782611a2a565b5b9050919050565b6000806110fb83611a94565b9050600073ffffffffffffffffffffffffffffffffffffffff168173ffffffffffffffffffffffffffffffffffffffff160361116e57826040517f7e273289000000000000000000000000000000000000000000000000000000008152600401611165919061251e565b60405180910390fd5b80915050919050565b60006004600083815260200190815260200160002060009054906101000a900473ffffffffffffffffffffffffffffffffffffffff169050919050565b600033905090565b6111c98383836001611ad1565b505050565b6000806111da84611a94565b9050600073ffffffffffffffffffffffffffffffffffffffff168373ffffffffffffffffffffffffffffffffffffffff161461121c5761121b818486611c96565b5b600073ffffffffffffffffffffffffffffffffffffffff168173ffffffffffffffffffffffffffffffffffffffff16146112ad5761125e600085600080611ad1565b6001600360008373ffffffffffffffffffffffffffffffffffffffff1673ffffffffffffffffffffffffffffffffffffffff168152602001908152602001600020600082825403925050819055505b600073ffffffffffffffffffffffffffffffffffffffff168573ffffffffffffffffffffffffffffffffffffffff1614611330576001600360008773ffffffffffffffffffffffffffffffffffffffff1673ffffffffffffffffffffffffffffffffffffffff168152602001908152602001600020600082825401925050819055505b846002600086815260200190815260200160002060006101000a81548173ffffffffffffffffffffffffffffffffffffffff021916908373ffffffffffffffffffffffffffffffffffffffff160217905550838573ffffffffffffffffffffffffffffffffffffffff168273ffffffffffffffffffffffffffffffffffffffff167fddf252ad1be2c89b69c2b068fc378daa952ba7f163c4a11628f55a4df523b3ef60405160405180910390a4809150509392505050565b6113f06111b4565b73ffffffffffffffffffffffffffffffffffffffff1661140e610bbb565b73ffffffffffffffffffffffffffffffffffffffff161461146d576114316111b4565b6040517f118cdaa70000000000000000000000000000000000000000000000000000000081526004016114649190612292565b60405180910390fd5b565b6000600760009054906101000a900473ffffffffffffffffffffffffffffffffffffffff16905081600760006101000a81548173ffffffffffffffffffffffffffffffffffffffff021916908373ffffffffffffffffffffffffffffffffffffffff1602179055508173ffffffffffffffffffffffffffffffffffffffff168173ffffffffffffffffffffffffffffffffffffffff167f8be0079c531659141344cd1fd0a4f28419497f9722a3daafe3b4186f6b6457e060405160405180910390a35050565b600073ffffffffffffffffffffffffffffffffffffffff168273ffffffffffffffffffffffffffffffffffffffff16036115a657816040517f5b08ba1800000000000000000000000000000000000000000000000000000000815260040161159d9190612292565b60405180910390fd5b80600560008573ffffffffffffffffffffffffffffffffffffffff1673ffffffffffffffffffffffffffffffffffffffff16815260200190815260200160002060008473ffffffffffffffffffffffffffffffffffffffff1673ffffffffffffffffffffffffffffffffffffffff16815260200190815260200160002060006101000a81548160ff0219169083151502179055508173ffffffffffffffffffffffffffffffffffffffff168373ffffffffffffffffffffffffffffffffffffffff167f17307eab39ab6107e8899845ad3d59bd9653f200f220920489ca2b5937696c31836040516116979190612121565b60405180910390a3505050565b600073ffffffffffffffffffffffffffffffffffffffff168273ffffffffffffffffffffffffffffffffffffffff16036117165760006040517f64a0ae9200000000000000000000000000000000000000000000000000000000815260040161170d9190612292565b60405180910390fd5b6000611724838360006111ce565b9050600073ffffffffffffffffffffffffffffffffffffffff168173ffffffffffffffffffffffffffffffffffffffff16146117985760006040517f73c6ac6e00000000000000000000000000000000000000000000000000000000815260040161178f9190612292565b60405180910390fd5b505050565b806006600084815260200190815260200160002090816117bd9190612c0b565b507ff8e1a15aba9398e019f0b49df1a4fde98ee17ae345cb5f6b5e2c27f5033e8ce7826040516117ed919061251e565b60405180910390a15050565b60008373ffffffffffffffffffffffffffffffffffffffff163b11156119a3578273ffffffffffffffffffffffffffffffffffffffff1663150b7a02868685856040518563ffffffff1660e01b81526004016118589493929190612dc9565b6020604051808303816000875af192505050801561189457506040513d601f19601f820116820180604052508101906118919190612e2a565b60015b611918573d80600081146118c4576040519150601f19603f3d011682016040523d82523d6000602084013e6118c9565b606091505b50600081510361191057836040517f64a0ae920000000000000000000000000000000000000000000000000000000081526004016119079190612292565b60405180910390fd5b805181602001fd5b63150b7a0260e01b7bffffffffffffffffffffffffffffffffffffffffffffffffffffffff1916817bffffffffffffffffffffffffffffffffffffffffffffffffffffffff1916146119a157836040517f64a0ae920000000000000000000000000000000000000000000000000000000081526004016119989190612292565b60405180910390fd5b505b5050505050565b606060405180602001604052806000815250905090565b60606119cc826110ef565b5060006119d76119aa565b905060008151116119f75760405180602001604052806000815250611a22565b80611a0184611d5a565b604051602001611a12929190612d50565b6040516020818303038152906040525b915050919050565b60007f01ffc9a7000000000000000000000000000000000000000000000000000000007bffffffffffffffffffffffffffffffffffffffffffffffffffffffff1916827bffffffffffffffffffffffffffffffffffffffffffffffffffffffff1916149050919050565b60006002600083815260200190815260200160002060009054906101000a900473ffffffffffffffffffffffffffffffffffffffff169050919050565b8080611b0a5750600073ffffffffffffffffffffffffffffffffffffffff168273ffffffffffffffffffffffffffffffffffffffff1614155b15611c3e576000611b1a846110ef565b9050600073ffffffffffffffffffffffffffffffffffffffff168373ffffffffffffffffffffffffffffffffffffffff1614158015611b8557508273ffffffffffffffffffffffffffffffffffffffff168173ffffffffffffffffffffffffffffffffffffffff1614155b8015611b985750611b968184610ef3565b155b15611bda57826040517fa9fbf51f000000000000000000000000000000000000000000000000000000008152600401611bd19190612292565b60405180910390fd5b8115611c3c57838573ffffffffffffffffffffffffffffffffffffffff168273ffffffffffffffffffffffffffffffffffffffff167f8c5be1e5ebec7d5bd14f71427d1e84f3dd0314c0f7b2291e5b200ac8c7c3b92560405160405180910390a45b505b836004600085815260200190815260200160002060006101000a81548173ffffffffffffffffffffffffffffffffffffffff021916908373ffffffffffffffffffffffffffffffffffffffff16021790555050505050565b611ca1838383611e28565b611d5557600073ffffffffffffffffffffffffffffffffffffffff168373ffffffffffffffffffffffffffffffffffffffff1603611d1657806040517f7e273289000000000000000000000000000000000000000000000000000000008152600401611d0d919061251e565b60405180910390fd5b81816040517f177e802f000000000000000000000000000000000000000000000000000000008152600401611d4c929190612e57565b60405180910390fd5b505050565b606060006001611d6984611ee9565b01905060008167ffffffffffffffff811115611d8857611d876125af565b5b6040519080825280601f01601f191660200182016040528015611dba5781602001600182028036833780820191505090505b509050600082602001820190505b600115611e1d578080600190039150507f3031323334353637383961626364656600000000000000000000000000000000600a86061a8153600a8581611e1157611e10612e80565b5b04945060008503611dc8575b819350505050919050565b60008073ffffffffffffffffffffffffffffffffffffffff168373ffffffffffffffffffffffffffffffffffffffff1614158015611ee057508273ffffffffffffffffffffffffffffffffffffffff168473ffffffffffffffffffffffffffffffffffffffff161480611ea15750611ea08484610ef3565b5b80611edf57508273ffffffffffffffffffffffffffffffffffffffff16611ec783611177565b73ffffffffffffffffffffffffffffffffffffffff16145b5b90509392505050565b600080600090507a184f03e93ff9f4daa797ed6e38ed64bf6a1f0100000000000000008310611f47577a184f03e93ff9f4daa797ed6e38ed64bf6a1f0100000000000000008381611f3d57611f3c612e80565b5b0492506040810190505b6d04ee2d6d415b85acef81000000008310611f84576d04ee2d6d415b85acef81000000008381611f7a57611f79612e80565b5b0492506020810190505b662386f26fc100008310611fb357662386f26fc100008381611fa957611fa8612e80565b5b0492506010810190505b6305f5e1008310611fdc576305f5e1008381611fd257611fd1612e80565b5b0492506008810190505b6127108310612001576127108381611ff757611ff6612e80565b5b0492506004810190505b60648310612024576064838161201a57612019612e80565b5b0492506002810190505b600a8310612033576001810190505b80915050919050565b6040518060a00160405280600081526020016060815260200160608152602001606081526020016000151581525090565b6000604051905090565b600080fd5b600080fd5b60007fffffffff0000000000000000000000000000000000000000000000000000000082169050919050565b6120b681612081565b81146120c157600080fd5b50565b6000813590506120d3816120ad565b92915050565b6000602082840312156120ef576120ee612077565b5b60006120fd848285016120c4565b91505092915050565b60008115159050919050565b61211b81612106565b82525050565b60006020820190506121366000830184612112565b92915050565b600081519050919050565b600082825260208201905092915050565b60005b8381101561217657808201518184015260208101905061215b565b60008484015250505050565b6000601f19601f8301169050919050565b600061219e8261213c565b6121a88185612147565b93506121b8818560208601612158565b6121c181612182565b840191505092915050565b600060208201905081810360008301526121e68184612193565b905092915050565b6000819050919050565b612201816121ee565b811461220c57600080fd5b50565b60008135905061221e816121f8565b92915050565b60006020828403121561223a57612239612077565b5b60006122488482850161220f565b91505092915050565b600073ffffffffffffffffffffffffffffffffffffffff82169050919050565b600061227c82612251565b9050919050565b61228c81612271565b82525050565b60006020820190506122a76000830184612283565b92915050565b6122b681612271565b81146122c157600080fd5b50565b6000813590506122d3816122ad565b92915050565b600080604083850312156122f0576122ef612077565b5b60006122fe858286016122c4565b925050602061230f8582860161220f565b9150509250929050565b60008060006060848603121561233257612331612077565b5b6000612340868287016122c4565b9350506020612351868287016122c4565b92505060406123628682870161220f565b9150509250925092565b612375816121ee565b82525050565b600060a082019050612390600083018861236c565b81810360208301526123a28187612193565b905081810360408301526123b68186612193565b905081810360608301526123ca8185612193565b90506123d96080830184612112565b9695505050505050565b6123ec816121ee565b82525050565b600082825260208201905092915050565b600061240e8261213c565b61241881856123f2565b9350612428818560208601612158565b61243181612182565b840191505092915050565b61244581612106565b82525050565b600060a08301600083015161246360008601826123e3565b506020830151848203602086015261247b8282612403565b915050604083015184820360408601526124958282612403565b915050606083015184820360608601526124af8282612403565b91505060808301516124c4608086018261243c565b508091505092915050565b600060208201905081810360008301526124e9818461244b565b905092915050565b60006020828403121561250757612506612077565b5b6000612515848285016122c4565b91505092915050565b6000602082019050612533600083018461236c565b92915050565b61254281612106565b811461254d57600080fd5b50565b60008135905061255f81612539565b92915050565b6000806040838503121561257c5761257b612077565b5b600061258a858286016122c4565b925050602061259b85828601612550565b9150509250929050565b600080fd5b600080fd5b7f4e487b7100000000000000000000000000000000000000000000000000000000600052604160045260246000fd5b6125e782612182565b810181811067ffffffffffffffff82111715612606576126056125af565b5b80604052505050565b600061261961206d565b905061262582826125de565b919050565b600067ffffffffffffffff821115612645576126446125af565b5b61264e82612182565b9050602081019050919050565b82818337600083830152505050565b600061267d6126788461262a565b61260f565b905082815260208101848484011115612699576126986125aa565b5b6126a484828561265b565b509392505050565b600082601f8301126126c1576126c06125a5565b5b81356126d184826020860161266a565b91505092915050565b6000806000606084860312156126f3576126f2612077565b5b600084013567ffffffffffffffff8111156127115761271061207c565b5b61271d868287016126ac565b935050602084013567ffffffffffffffff81111561273e5761273d61207c565b5b61274a868287016126ac565b925050604084013567ffffffffffffffff81111561276b5761276a61207c565b5b612777868287016126ac565b9150509250925092565b600067ffffffffffffffff82111561279c5761279b6125af565b5b6127a582612182565b9050602081019050919050565b60006127c56127c084612781565b61260f565b9050828152602081018484840111156127e1576127e06125aa565b5b6127ec84828561265b565b509392505050565b600082601f830112612809576128086125a5565b5b81356128198482602086016127b2565b91505092915050565b6000806000806080858703121561283c5761283b612077565b5b600061284a878288016122c4565b945050602061285b878288016122c4565b935050604061286c8782880161220f565b925050606085013567ffffffffffffffff81111561288d5761288c61207c565b5b612899878288016127f4565b91505092959194509250565b600080604083850312156128bc576128bb612077565b5b60006128ca858286016122c4565b92505060206128db858286016122c4565b9150509250929050565b7f4e487b7100000000000000000000000000000000000000000000000000000000600052602260045260246000fd5b6000600282049050600182168061292c57607f821691505b60208210810361293f5761293e6128e5565b5b50919050565b600060608201905061295a6000830186612283565b612967602083018561236c565b6129746040830184612283565b949350505050565b7f43616e64696461746520646f6573206e6f742065786973740000000000000000600082015250565b60006129b2601883612147565b91506129bd8261297c565b602082019050919050565b600060208201905081810360008301526129e1816129a5565b9050919050565b7f4e487b7100000000000000000000000000000000000000000000000000000000600052601160045260246000fd5b6000612a22826121ee565b91507fffffffffffffffffffffffffffffffffffffffffffffffffffffffffffffffff8203612a5457612a536129e8565b5b600182019050919050565b60008190508160005260206000209050919050565b60006020601f8301049050919050565b600082821b905092915050565b600060088302612ac17fffffffffffffffffffffffffffffffffffffffffffffffffffffffffffffffff82612a84565b612acb8683612a84565b95508019841693508086168417925050509392505050565b6000819050919050565b6000612b08612b03612afe846121ee565b612ae3565b6121ee565b9050919050565b6000819050919050565b612b2283612aed565b612b36612b2e82612b0f565b848454612a91565b825550505050565b600090565b612b4b612b3e565b612b56818484612b19565b505050565b5b81811015612b7a57612b6f600082612b43565b600181019050612b5c565b5050565b601f821115612bbf57612b9081612a5f565b612b9984612a74565b81016020851015612ba8578190505b612bbc612bb485612a74565b830182612b5b565b50505b505050565b600082821c905092915050565b6000612be260001984600802612bc4565b1980831691505092915050565b6000612bfb8383612bd1565b9150826002028217905092915050565b612c148261213c565b67ffffffffffffffff811115612c2d57612c2c6125af565b5b612c378254612914565b612c42828285612b7e565b600060209050601f831160018114612c755760008415612c63578287015190505b612c6d8582612bef565b865550612cd5565b601f198416612c8386612a5f565b60005b82811015612cab57848901518255600182019150602085019450602081019050612c86565b86831015612cc85784890151612cc4601f891682612bd1565b8355505b6001600288020188555050505b505050505050565b60006040820190508181036000830152612cf78185612193565b90508181036020830152612d0b8184612193565b90509392505050565b600081905092915050565b6000612d2a8261213c565b612d348185612d14565b9350612d44818560208601612158565b80840191505092915050565b6000612d5c8285612d1f565b9150612d688284612d1f565b91508190509392505050565b600081519050919050565b600082825260208201905092915050565b6000612d9b82612d74565b612da58185612d7f565b9350612db5818560208601612158565b612dbe81612182565b840191505092915050565b6000608082019050612dde6000830187612283565b612deb6020830186612283565b612df8604083018561236c565b8181036060830152612e0a8184612d90565b905095945050505050565b600081519050612e24816120ad565b92915050565b600060208284031215612e4057612e3f612077565b5b6000612e4e84828501612e15565b91505092915050565b6000604082019050612e6c6000830185612283565b612e79602083018461236c565b9392505050565b7f4e487b7100000000000000000000000000000000000000000000000000000000600052601260045260246000fdfea2646970667358221220bc816bd16983f971459e14aa15ecf01306d717d5aa319e79d397d2f65d3a321d64736f6c63430008180033",
  "linkReferences": {},
  "deployedLinkReferences": {}
}