{
  "_format": "hh-sol-artifact-1",
  "contractName": "CandidateManager",
  "sourceName": "contracts/CandidateManager.sol",
  "abi": [
    {
      "inputs": [],
      "stateMutability": "nonpayable",
      "type": "constructor"
    },
    {
      "inputs": [
        {
          "internalType": "address",
          "name": "owner",
          "type": "address"
        }
      ],
      "name": "OwnableInvalidOwner",
      "type": "error"
    },
    {
      "inputs": [
        {
          "internalType": "address",
          "name": "account",
          "type": "address"
        }
      ],
      "name": "OwnableUnauthorizedAccount",
      "type": "error"
    },
    {
      "anonymous": false,
      "inputs": [
        {
          "indexed": true,
          "internalType": "uint256",
          "name": "id",
          "type": "uint256"
        },
        {
          "indexed": false,
          "internalType": "string",
          "name": "candidateName",
          "type": "string"
        },
        {
          "indexed": false,
          "internalType": "string",
          "name": "description",
          "type": "string"
        }
      ],
      "name": "CandidateAdded",
      "type": "event"
    },
    {
      "anonymous": false,
      "inputs": [
        {
          "indexed": true,
          "internalType": "address",
          "name": "previousOwner",
          "type": "address"
        },
        {
          "indexed": true,
          "internalType": "address",
          "name": "newOwner",
          "type": "address"
        }
      ],
      "name": "OwnershipTransferred",
      "type": "event"
    },
    {
      "inputs": [
        {
          "internalType": "string",
          "name": "candidateName",
          "type": "string"
        },
        {
          "internalType": "string",
          "name": "description",
          "type": "string"
        }
      ],
      "name": "addCandidate",
      "outputs": [
        {
          "internalType": "uint256",
          "name": "",
          "type": "uint256"
        }
      ],
      "stateMutability": "nonpayable",
      "type": "function"
    },
    {
      "inputs": [
        {
          "internalType": "uint256",
          "name": "candidateId",
          "type": "uint256"
        }
      ],
      "name": "candidateExists",
      "outputs": [
        {
          "internalType": "bool",
          "name": "",
          "type": "bool"
        }
      ],
      "stateMutability": "view",
      "type": "function"
    },
    {
      "inputs": [
        {
          "internalType": "uint256",
          "name": "",
          "type": "uint256"
        }
      ],
      "name": "candidates",
      "outputs": [
        {
          "internalType": "uint256",
          "name": "id",
          "type": "uint256"
        },
        {
          "internalType": "string",
          "name": "name",
          "type": "string"
        },
        {
          "internalType": "string",
          "name": "description",
          "type": "string"
        },
        {
          "internalType": "bool",
          "name": "exists",
          "type": "bool"
        }
      ],
      "stateMutability": "view",
      "type": "function"
    },
    {
      "inputs": [
        {
          "internalType": "uint256",
          "name": "candidateId",
          "type": "uint256"
        }
      ],
      "name": "getCandidate",
      "outputs": [
        {
          "components": [
            {
              "internalType": "uint256",
              "name": "id",
              "type": "uint256"
            },
            {
              "internalType": "string",
              "name": "name",
              "type": "string"
            },
            {
              "internalType": "string",
              "name": "description",
              "type": "string"
            },
            {
              "internalType": "bool",
              "name": "exists",
              "type": "bool"
            }
          ],
          "internalType": "struct CandidateManager.Candidate",
          "name": "",
          "type": "tuple"
        }
      ],
      "stateMutability": "view",
      "type": "function"
    },
    {
      "inputs": [],
      "name": "owner",
      "outputs": [
        {
          "internalType": "address",
          "name": "",
          "type": "address"
        }
      ],
      "stateMutability": "view",
      "type": "function"
    },
    {
      "inputs": [],
      "name": "renounceOwnership",
      "outputs": [],
      "stateMutability": "nonpayable",
      "type": "function"
    },
    {
      "inputs": [
        {
          "internalType": "address",
          "name": "newOwner",
          "type": "address"
        }
      ],
      "name": "transferOwnership",
      "outputs": [],
      "stateMutability": "nonpayable",
      "type": "function"
    }
  ],
  "bytecode": "0x608060405234801561001057600080fd5b5033600073ffffffffffffffffffffffffffffffffffffffff168173ffffffffffffffffffffffffffffffffffffffff16036100845760006040517f1e4fbdf700000000000000000000000000000000000000000000000000000000815260040161007b919061019e565b60405180910390fd5b6100938161009960201b60201c565b506101b9565b60008060009054906101000a900473ffffffffffffffffffffffffffffffffffffffff169050816000806101000a81548173ffffffffffffffffffffffffffffffffffffffff021916908373ffffffffffffffffffffffffffffffffffffffff1602179055508173ffffffffffffffffffffffffffffffffffffffff168173ffffffffffffffffffffffffffffffffffffffff167f8be0079c531659141344cd1fd0a4f28419497f9722a3daafe3b4186f6b6457e060405160405180910390a35050565b600073ffffffffffffffffffffffffffffffffffffffff82169050919050565b60006101888261015d565b9050919050565b6101988161017d565b82525050565b60006020820190506101b3600083018461018f565b92915050565b61115780620001c96000396000f3fe608060405234801561001057600080fd5b506004361061007d5760003560e01c80634a3b88771161005b5780634a3b887714610115578063715018a6146101455780638da5cb5b1461014f578063f2fde38b1461016d5761007d565b806326541b56146100825780633477ee2e146100b257806335b8e820146100e5575b600080fd5b61009c60048036038101906100979190610973565b610189565b6040516100a99190610a04565b60405180910390f35b6100cc60048036038101906100c79190610a4b565b610286565b6040516100dc9493929190610b12565b60405180910390f35b6100ff60048036038101906100fa9190610a4b565b6103d3565b60405161010c9190610c37565b60405180910390f35b61012f600480360381019061012a9190610a4b565b6105ac565b60405161013c9190610c59565b60405180910390f35b61014d6105d9565b005b6101576105ed565b6040516101649190610cb5565b60405180910390f35b61018760048036038101906101829190610cfc565b610616565b005b600061019361069c565b600160008154809291906101a690610d58565b919050555060006001549050604051806080016040528082815260200185815260200184815260200160011515815250600260008381526020019081526020016000206000820151816000015560208201518160010190816102089190610fac565b50604082015181600201908161021e9190610fac565b5060608201518160030160006101000a81548160ff021916908315150217905550905050807fe64f834082661dd9ed89427b87edb6270fd6dad17198b0938f0edd058914c87f858560405161027492919061107e565b60405180910390a28091505092915050565b60026020528060005260406000206000915090508060000154908060010180546102af90610dcf565b80601f01602080910402602001604051908101604052809291908181526020018280546102db90610dcf565b80156103285780601f106102fd57610100808354040283529160200191610328565b820191906000526020600020905b81548152906001019060200180831161030b57829003601f168201915b50505050509080600201805461033d90610dcf565b80601f016020809104026020016040519081016040528092919081815260200182805461036990610dcf565b80156103b65780601f1061038b576101008083540402835291602001916103b6565b820191906000526020600020905b81548152906001019060200180831161039957829003601f168201915b5050505050908060030160009054906101000a900460ff16905084565b6103db6107ef565b6002600083815260200190815260200160002060030160009054906101000a900460ff1661043e576040517f08c379a000000000000000000000000000000000000000000000000000000000815260040161043590611101565b60405180910390fd5b600260008381526020019081526020016000206040518060800160405290816000820154815260200160018201805461047690610dcf565b80601f01602080910402602001604051908101604052809291908181526020018280546104a290610dcf565b80156104ef5780601f106104c4576101008083540402835291602001916104ef565b820191906000526020600020905b8154815290600101906020018083116104d257829003601f168201915b5050505050815260200160028201805461050890610dcf565b80601f016020809104026020016040519081016040528092919081815260200182805461053490610dcf565b80156105815780601f1061055657610100808354040283529160200191610581565b820191906000526020600020905b81548152906001019060200180831161056457829003601f168201915b505050505081526020016003820160009054906101000a900460ff1615151515815250509050919050565b60006002600083815260200190815260200160002060030160009054906101000a900460ff169050919050565b6105e161069c565b6105eb6000610723565b565b60008060009054906101000a900473ffffffffffffffffffffffffffffffffffffffff16905090565b61061e61069c565b600073ffffffffffffffffffffffffffffffffffffffff168173ffffffffffffffffffffffffffffffffffffffff16036106905760006040517f1e4fbdf70000000000000000000000000000000000000000000000000000000081526004016106879190610cb5565b60405180910390fd5b61069981610723565b50565b6106a46107e7565b73ffffffffffffffffffffffffffffffffffffffff166106c26105ed565b73ffffffffffffffffffffffffffffffffffffffff1614610721576106e56107e7565b6040517f118cdaa70000000000000000000000000000000000000000000000000000000081526004016107189190610cb5565b60405180910390fd5b565b60008060009054906101000a900473ffffffffffffffffffffffffffffffffffffffff169050816000806101000a81548173ffffffffffffffffffffffffffffffffffffffff021916908373ffffffffffffffffffffffffffffffffffffffff1602179055508173ffffffffffffffffffffffffffffffffffffffff168173ffffffffffffffffffffffffffffffffffffffff167f8be0079c531659141344cd1fd0a4f28419497f9722a3daafe3b4186f6b6457e060405160405180910390a35050565b600033905090565b60405180608001604052806000815260200160608152602001606081526020016000151581525090565b6000604051905090565b600080fd5b600080fd5b600080fd5b600080fd5b6000601f19601f8301169050919050565b7f4e487b7100000000000000000000000000000000000000000000000000000000600052604160045260246000fd5b61088082610837565b810181811067ffffffffffffffff8211171561089f5761089e610848565b5b80604052505050565b60006108b2610819565b90506108be8282610877565b919050565b600067ffffffffffffffff8211156108de576108dd610848565b5b6108e782610837565b9050602081019050919050565b82818337600083830152505050565b6000610916610911846108c3565b6108a8565b90508281526020810184848401111561093257610931610832565b5b61093d8482856108f4565b509392505050565b600082601f83011261095a5761095961082d565b5b813561096a848260208601610903565b91505092915050565b6000806040838503121561098a57610989610823565b5b600083013567ffffffffffffffff8111156109a8576109a7610828565b5b6109b485828601610945565b925050602083013567ffffffffffffffff8111156109d5576109d4610828565b5b6109e185828601610945565b9150509250929050565b6000819050919050565b6109fe816109eb565b82525050565b6000602082019050610a1960008301846109f5565b92915050565b610a28816109eb565b8114610a3357600080fd5b50565b600081359050610a4581610a1f565b92915050565b600060208284031215610a6157610a60610823565b5b6000610a6f84828501610a36565b91505092915050565b600081519050919050565b600082825260208201905092915050565b60005b83811015610ab2578082015181840152602081019050610a97565b60008484015250505050565b6000610ac982610a78565b610ad38185610a83565b9350610ae3818560208601610a94565b610aec81610837565b840191505092915050565b60008115159050919050565b610b0c81610af7565b82525050565b6000608082019050610b2760008301876109f5565b8181036020830152610b398186610abe565b90508181036040830152610b4d8185610abe565b9050610b5c6060830184610b03565b95945050505050565b610b6e816109eb565b82525050565b600082825260208201905092915050565b6000610b9082610a78565b610b9a8185610b74565b9350610baa818560208601610a94565b610bb381610837565b840191505092915050565b610bc781610af7565b82525050565b6000608083016000830151610be56000860182610b65565b5060208301518482036020860152610bfd8282610b85565b91505060408301518482036040860152610c178282610b85565b9150506060830151610c2c6060860182610bbe565b508091505092915050565b60006020820190508181036000830152610c518184610bcd565b905092915050565b6000602082019050610c6e6000830184610b03565b92915050565b600073ffffffffffffffffffffffffffffffffffffffff82169050919050565b6000610c9f82610c74565b9050919050565b610caf81610c94565b82525050565b6000602082019050610cca6000830184610ca6565b92915050565b610cd981610c94565b8114610ce457600080fd5b50565b600081359050610cf681610cd0565b92915050565b600060208284031215610d1257610d11610823565b5b6000610d2084828501610ce7565b91505092915050565b7f4e487b7100000000000000000000000000000000000000000000000000000000600052601160045260246000fd5b6000610d63826109eb565b91507fffffffffffffffffffffffffffffffffffffffffffffffffffffffffffffffff8203610d9557610d94610d29565b5b600182019050919050565b7f4e487b7100000000000000000000000000000000000000000000000000000000600052602260045260246000fd5b60006002820490506001821680610de757607f821691505b602082108103610dfa57610df9610da0565b5b50919050565b60008190508160005260206000209050919050565b60006020601f8301049050919050565b600082821b905092915050565b600060088302610e627fffffffffffffffffffffffffffffffffffffffffffffffffffffffffffffffff82610e25565b610e6c8683610e25565b95508019841693508086168417925050509392505050565b6000819050919050565b6000610ea9610ea4610e9f846109eb565b610e84565b6109eb565b9050919050565b6000819050919050565b610ec383610e8e565b610ed7610ecf82610eb0565b848454610e32565b825550505050565b600090565b610eec610edf565b610ef7818484610eba565b505050565b5b81811015610f1b57610f10600082610ee4565b600181019050610efd565b5050565b601f821115610f6057610f3181610e00565b610f3a84610e15565b81016020851015610f49578190505b610f5d610f5585610e15565b830182610efc565b50505b505050565b600082821c905092915050565b6000610f8360001984600802610f65565b1980831691505092915050565b6000610f9c8383610f72565b9150826002028217905092915050565b610fb582610a78565b67ffffffffffffffff811115610fce57610fcd610848565b5b610fd88254610dcf565b610fe3828285610f1f565b600060209050601f8311600181146110165760008415611004578287015190505b61100e8582610f90565b865550611076565b601f19841661102486610e00565b60005b8281101561104c57848901518255600182019150602085019450602081019050611027565b868310156110695784890151611065601f891682610f72565b8355505b6001600288020188555050505b505050505050565b600060408201905081810360008301526110988185610abe565b905081810360208301526110ac8184610abe565b90509392505050565b7f43616e64696461746520646f6573206e6f742065786973740000000000000000600082015250565b60006110eb601883610a83565b91506110f6826110b5565b602082019050919050565b6000602082019050818103600083015261111a816110de565b905091905056fea26469706673582212206cfb32662905c1f2d02c751c0a77f3250a268fc7ecd5e20c4b65e7130b52006f64736f6c63430008180033",
  "linkReferences": {},
  "deployedLinkReferences": {}
}