{
  "_format": "hh-sol-artifact-1",
  "contractName": "ElectionManager",
  "sourceName": "contracts/ElectionManager.sol",
  "abi": [
    {
      "inputs": [],
      "stateMutability": "nonpayable",
      "type": "constructor"
    },
    {
      "inputs": [
        {
          "internalType": "address",
          "name": "owner",
          "type": "address"
        }
      ],
      "name": "OwnableInvalidOwner",
      "type": "error"
    },
    {
      "inputs": [
        {
          "internalType": "address",
          "name": "account",
          "type": "address"
        }
      ],
      "name": "OwnableUnauthorizedAccount",
      "type": "error"
    },
    {
      "anonymous": false,
      "inputs": [
        {
          "indexed": true,
          "internalType": "uint256",
          "name": "electionId",
          "type": "uint256"
        },
        {
          "indexed": true,
          "internalType": "uint256",
          "name": "candidateId",
          "type": "uint256"
        }
      ],
      "name": "CandidateRegistered",
      "type": "event"
    },
    {
      "anonymous": false,
      "inputs": [
        {
          "indexed": true,
          "internalType": "uint256",
          "name": "id",
          "type": "uint256"
        },
        {
          "indexed": false,
          "internalType": "string",
          "name": "name",
          "type": "string"
        },
        {
          "indexed": false,
          "internalType": "string",
          "name": "description",
          "type": "string"
        },
        {
          "indexed": false,
          "internalType": "uint256",
          "name": "startTime",
          "type": "uint256"
        },
        {
          "indexed": false,
          "internalType": "uint256",
          "name": "endTime",
          "type": "uint256"
        },
        {
          "indexed": false,
          "internalType": "address[]",
          "name": "whitelist",
          "type": "address[]"
        }
      ],
      "name": "ElectionCreated",
      "type": "event"
    },
    {
      "anonymous": false,
      "inputs": [
        {
          "indexed": true,
          "internalType": "address",
          "name": "previousOwner",
          "type": "address"
        },
        {
          "indexed": true,
          "internalType": "address",
          "name": "newOwner",
          "type": "address"
        }
      ],
      "name": "OwnershipTransferred",
      "type": "event"
    },
    {
      "inputs": [
        {
          "internalType": "string",
          "name": "name",
          "type": "string"
        },
        {
          "internalType": "string",
          "name": "description",
          "type": "string"
        },
        {
          "internalType": "uint256",
          "name": "startTime",
          "type": "uint256"
        },
        {
          "internalType": "uint256",
          "name": "endTime",
          "type": "uint256"
        },
        {
          "internalType": "address[]",
          "name": "whitelist",
          "type": "address[]"
        }
      ],
      "name": "createElection",
      "outputs": [
        {
          "internalType": "uint256",
          "name": "",
          "type": "uint256"
        }
      ],
      "stateMutability": "nonpayable",
      "type": "function"
    },
    {
      "inputs": [],
      "name": "electionCount",
      "outputs": [
        {
          "internalType": "uint256",
          "name": "",
          "type": "uint256"
        }
      ],
      "stateMutability": "view",
      "type": "function"
    },
    {
      "inputs": [
        {
          "internalType": "uint256",
          "name": "",
          "type": "uint256"
        }
      ],
      "name": "elections",
      "outputs": [
        {
          "internalType": "string",
          "name": "name",
          "type": "string"
        },
        {
          "internalType": "string",
          "name": "description",
          "type": "string"
        },
        {
          "internalType": "uint256",
          "name": "startTime",
          "type": "uint256"
        },
        {
          "internalType": "uint256",
          "name": "endTime",
          "type": "uint256"
        }
      ],
      "stateMutability": "view",
      "type": "function"
    },
    {
      "inputs": [
        {
          "internalType": "uint256",
          "name": "electionId",
          "type": "uint256"
        }
      ],
      "name": "getElection",
      "outputs": [
        {
          "components": [
            {
              "internalType": "string",
              "name": "name",
              "type": "string"
            },
            {
              "internalType": "string",
              "name": "description",
              "type": "string"
            },
            {
              "internalType": "uint256",
              "name": "startTime",
              "type": "uint256"
            },
            {
              "internalType": "uint256",
              "name": "endTime",
              "type": "uint256"
            }
          ],
          "internalType": "struct ElectionManager.Election",
          "name": "",
          "type": "tuple"
        }
      ],
      "stateMutability": "view",
      "type": "function"
    },
    {
      "inputs": [
        {
          "internalType": "uint256",
          "name": "electionId",
          "type": "uint256"
        }
      ],
      "name": "getElectionCandidates",
      "outputs": [
        {
          "internalType": "uint256[]",
          "name": "",
          "type": "uint256[]"
        }
      ],
      "stateMutability": "view",
      "type": "function"
    },
    {
      "inputs": [
        {
          "internalType": "uint256",
          "name": "electionId",
          "type": "uint256"
        }
      ],
      "name": "getWhitelist",
      "outputs": [
        {
          "internalType": "address[]",
          "name": "",
          "type": "address[]"
        }
      ],
      "stateMutability": "view",
      "type": "function"
    },
    {
      "inputs": [],
      "name": "owner",
      "outputs": [
        {
          "internalType": "address",
          "name": "",
          "type": "address"
        }
      ],
      "stateMutability": "view",
      "type": "function"
    },
    {
      "inputs": [
        {
          "internalType": "uint256",
          "name": "electionId",
          "type": "uint256"
        },
        {
          "internalType": "uint256",
          "name": "candidateId",
          "type": "uint256"
        }
      ],
      "name": "registerCandidateInElection",
      "outputs": [],
      "stateMutability": "nonpayable",
      "type": "function"
    },
    {
      "inputs": [],
      "name": "renounceOwnership",
      "outputs": [],
      "stateMutability": "nonpayable",
      "type": "function"
    },
    {
      "inputs": [
        {
          "internalType": "address",
          "name": "newOwner",
          "type": "address"
        }
      ],
      "name": "transferOwnership",
      "outputs": [],
      "stateMutability": "nonpayable",
      "type": "function"
    }
  ],
  "bytecode": "0x60806040523480156200001157600080fd5b5033600073ffffffffffffffffffffffffffffffffffffffff168173ffffffffffffffffffffffffffffffffffffffff1603620000885760006040517f1e4fbdf70000000000000000000000000000000000000000000000000000000081526004016200007f9190620001a9565b60405180910390fd5b6200009981620000a060201b60201c565b50620001c6565b60008060009054906101000a900473ffffffffffffffffffffffffffffffffffffffff169050816000806101000a81548173ffffffffffffffffffffffffffffffffffffffff021916908373ffffffffffffffffffffffffffffffffffffffff1602179055508173ffffffffffffffffffffffffffffffffffffffff168173ffffffffffffffffffffffffffffffffffffffff167f8be0079c531659141344cd1fd0a4f28419497f9722a3daafe3b4186f6b6457e060405160405180910390a35050565b600073ffffffffffffffffffffffffffffffffffffffff82169050919050565b6000620001918262000164565b9050919050565b620001a38162000184565b82525050565b6000602082019050620001c0600083018462000198565b92915050565b61190080620001d66000396000f3fe608060405234801561001057600080fd5b506004361061009e5760003560e01c806390fe41751161006657806390fe41751461014a57806396db752a1461017a578063997d2830146101aa5780639d710777146101c8578063f2fde38b146101f85761009e565b80635e12845e146100a35780635e6fef01146100d3578063715018a6146101065780638da5cb5b146101105780638e8306ec1461012e575b600080fd5b6100bd60048036038101906100b89190610c71565b610214565b6040516100ca9190610d5c565b60405180910390f35b6100ed60048036038101906100e89190610c71565b61027f565b6040516100fd9493929190610e1d565b60405180910390f35b61010e6103bf565b005b6101186103d3565b6040516101259190610eb1565b60405180910390f35b61014860048036038101906101439190610ecc565b6103fc565b005b610164600480360381019061015f9190610fc7565b6104d5565b60405161017191906110a3565b60405180910390f35b610194600480360381019061018f9190610c71565b6106fe565b6040516101a1919061117c565b60405180910390f35b6101b261079f565b6040516101bf91906110a3565b60405180910390f35b6101e260048036038101906101dd9190610c71565b6107a9565b6040516101ef9190611252565b60405180910390f35b610212600480360381019061020d91906112a0565b610973565b005b60606004600083815260200190815260200160002080548060200260200160405190810160405280929190818152602001828054801561027357602002820191906000526020600020905b81548152602001906001019080831161025f575b50505050509050919050565b60026020528060005260406000206000915090508060000180546102a2906112fc565b80601f01602080910402602001604051908101604052809291908181526020018280546102ce906112fc565b801561031b5780601f106102f05761010080835404028352916020019161031b565b820191906000526020600020905b8154815290600101906020018083116102fe57829003601f168201915b505050505090806001018054610330906112fc565b80601f016020809104026020016040519081016040528092919081815260200182805461035c906112fc565b80156103a95780601f1061037e576101008083540402835291602001916103a9565b820191906000526020600020905b81548152906001019060200180831161038c57829003601f168201915b5050505050908060020154908060030154905084565b6103c76109f9565b6103d16000610a80565b565b60008060009054906101000a900473ffffffffffffffffffffffffffffffffffffffff16905090565b6104046109f9565b6000600260008481526020019081526020016000206000018054610427906112fc565b905003610469576040517f08c379a000000000000000000000000000000000000000000000000000000000815260040161046090611379565b60405180910390fd5b6004600083815260200190815260200160002081908060018154018082558091505060019003906000526020600020016000909190919091505580827fe77d33cf0904a17bb7fba0ee072c9e243c59b7742d13d3fd331ee220808639a460405160405180910390a35050565b60006104df6109f9565b8484818111610523576040517f08c379a000000000000000000000000000000000000000000000000000000000815260040161051a906113e5565b60405180910390fd5b428111610565576040517f08c379a000000000000000000000000000000000000000000000000000000000815260040161055c90611451565b60405180910390fd5b60016000815480929190610578906114a0565b91905055506000600154905060405180608001604052808d8d8080601f016020809104026020016040519081016040528093929190818152602001838380828437600081840152601f19601f8201169050808301925050505050505081526020018b8b8080601f016020809104026020016040519081016040528093929190818152602001838380828437600081840152601f19601f8201169050808301925050505050505081526020018981526020018881525060026000838152602001908152602001600020600082015181600001908161065591906116c3565b50602082015181600101908161066b91906116c3565b50604082015181600201556060820151816003015590505085856003600084815260200190815260200160002091906106a5929190610b4c565b50807fdae415a2ad28e018afb118c7b6813cc1509c524029f9eb61e696bf1ad5510fff8d8d8d8d8d8d8d8d6040516106e498979695949392919061185c565b60405180910390a280935050505098975050505050505050565b60606003600083815260200190815260200160002080548060200260200160405190810160405280929190818152602001828054801561079357602002820191906000526020600020905b8160009054906101000a900473ffffffffffffffffffffffffffffffffffffffff1673ffffffffffffffffffffffffffffffffffffffff1681526020019060010190808311610749575b50505050509050919050565b6000600154905090565b6107b1610bec565b60006002600084815260200190815260200160002060000180546107d4906112fc565b905003610816576040517f08c379a000000000000000000000000000000000000000000000000000000000815260040161080d90611379565b60405180910390fd5b60026000838152602001908152602001600020604051806080016040529081600082018054610844906112fc565b80601f0160208091040260200160405190810160405280929190818152602001828054610870906112fc565b80156108bd5780601f10610892576101008083540402835291602001916108bd565b820191906000526020600020905b8154815290600101906020018083116108a057829003601f168201915b505050505081526020016001820180546108d6906112fc565b80601f0160208091040260200160405190810160405280929190818152602001828054610902906112fc565b801561094f5780601f106109245761010080835404028352916020019161094f565b820191906000526020600020905b81548152906001019060200180831161093257829003601f168201915b50505050508152602001600282015481526020016003820154815250509050919050565b61097b6109f9565b600073ffffffffffffffffffffffffffffffffffffffff168173ffffffffffffffffffffffffffffffffffffffff16036109ed5760006040517f1e4fbdf70000000000000000000000000000000000000000000000000000000081526004016109e49190610eb1565b60405180910390fd5b6109f681610a80565b50565b610a01610b44565b73ffffffffffffffffffffffffffffffffffffffff16610a1f6103d3565b73ffffffffffffffffffffffffffffffffffffffff1614610a7e57610a42610b44565b6040517f118cdaa7000000000000000000000000000000000000000000000000000000008152600401610a759190610eb1565b60405180910390fd5b565b60008060009054906101000a900473ffffffffffffffffffffffffffffffffffffffff169050816000806101000a81548173ffffffffffffffffffffffffffffffffffffffff021916908373ffffffffffffffffffffffffffffffffffffffff1602179055508173ffffffffffffffffffffffffffffffffffffffff168173ffffffffffffffffffffffffffffffffffffffff167f8be0079c531659141344cd1fd0a4f28419497f9722a3daafe3b4186f6b6457e060405160405180910390a35050565b600033905090565b828054828255906000526020600020908101928215610bdb579160200282015b82811115610bda57823573ffffffffffffffffffffffffffffffffffffffff168260006101000a81548173ffffffffffffffffffffffffffffffffffffffff021916908373ffffffffffffffffffffffffffffffffffffffff16021790555091602001919060010190610b6c565b5b509050610be89190610c14565b5090565b6040518060800160405280606081526020016060815260200160008152602001600081525090565b5b80821115610c2d576000816000905550600101610c15565b5090565b600080fd5b600080fd5b6000819050919050565b610c4e81610c3b565b8114610c5957600080fd5b50565b600081359050610c6b81610c45565b92915050565b600060208284031215610c8757610c86610c31565b5b6000610c9584828501610c5c565b91505092915050565b600081519050919050565b600082825260208201905092915050565b6000819050602082019050919050565b610cd381610c3b565b82525050565b6000610ce58383610cca565b60208301905092915050565b6000602082019050919050565b6000610d0982610c9e565b610d138185610ca9565b9350610d1e83610cba565b8060005b83811015610d4f578151610d368882610cd9565b9750610d4183610cf1565b925050600181019050610d22565b5085935050505092915050565b60006020820190508181036000830152610d768184610cfe565b905092915050565b600081519050919050565b600082825260208201905092915050565b60005b83811015610db8578082015181840152602081019050610d9d565b60008484015250505050565b6000601f19601f8301169050919050565b6000610de082610d7e565b610dea8185610d89565b9350610dfa818560208601610d9a565b610e0381610dc4565b840191505092915050565b610e1781610c3b565b82525050565b60006080820190508181036000830152610e378187610dd5565b90508181036020830152610e4b8186610dd5565b9050610e5a6040830185610e0e565b610e676060830184610e0e565b95945050505050565b600073ffffffffffffffffffffffffffffffffffffffff82169050919050565b6000610e9b82610e70565b9050919050565b610eab81610e90565b82525050565b6000602082019050610ec66000830184610ea2565b92915050565b60008060408385031215610ee357610ee2610c31565b5b6000610ef185828601610c5c565b9250506020610f0285828601610c5c565b9150509250929050565b600080fd5b600080fd5b600080fd5b60008083601f840112610f3157610f30610f0c565b5b8235905067ffffffffffffffff811115610f4e57610f4d610f11565b5b602083019150836001820283011115610f6a57610f69610f16565b5b9250929050565b60008083601f840112610f8757610f86610f0c565b5b8235905067ffffffffffffffff811115610fa457610fa3610f11565b5b602083019150836020820283011115610fc057610fbf610f16565b5b9250929050565b60008060008060008060008060a0898b031215610fe757610fe6610c31565b5b600089013567ffffffffffffffff81111561100557611004610c36565b5b6110118b828c01610f1b565b9850985050602089013567ffffffffffffffff81111561103457611033610c36565b5b6110408b828c01610f1b565b965096505060406110538b828c01610c5c565b94505060606110648b828c01610c5c565b935050608089013567ffffffffffffffff81111561108557611084610c36565b5b6110918b828c01610f71565b92509250509295985092959890939650565b60006020820190506110b86000830184610e0e565b92915050565b600081519050919050565b600082825260208201905092915050565b6000819050602082019050919050565b6110f381610e90565b82525050565b600061110583836110ea565b60208301905092915050565b6000602082019050919050565b6000611129826110be565b61113381856110c9565b935061113e836110da565b8060005b8381101561116f57815161115688826110f9565b975061116183611111565b925050600181019050611142565b5085935050505092915050565b60006020820190508181036000830152611196818461111e565b905092915050565b600082825260208201905092915050565b60006111ba82610d7e565b6111c4818561119e565b93506111d4818560208601610d9a565b6111dd81610dc4565b840191505092915050565b6000608083016000830151848203600086015261120582826111af565b9150506020830151848203602086015261121f82826111af565b91505060408301516112346040860182610cca565b5060608301516112476060860182610cca565b508091505092915050565b6000602082019050818103600083015261126c81846111e8565b905092915050565b61127d81610e90565b811461128857600080fd5b50565b60008135905061129a81611274565b92915050565b6000602082840312156112b6576112b5610c31565b5b60006112c48482850161128b565b91505092915050565b7f4e487b7100000000000000000000000000000000000000000000000000000000600052602260045260246000fd5b6000600282049050600182168061131457607f821691505b602082108103611327576113266112cd565b5b50919050565b7f4e6f207375636820656c656374696f6e00000000000000000000000000000000600082015250565b6000611363601083610d89565b915061136e8261132d565b602082019050919050565b6000602082019050818103600083015261139281611356565b9050919050565b7f456e64206d757374206265206166746572207374617274000000000000000000600082015250565b60006113cf601783610d89565b91506113da82611399565b602082019050919050565b600060208201905081810360008301526113fe816113c2565b9050919050565b7f456e64206d75737420626520696e206675747572650000000000000000000000600082015250565b600061143b601583610d89565b915061144682611405565b602082019050919050565b6000602082019050818103600083015261146a8161142e565b9050919050565b7f4e487b7100000000000000000000000000000000000000000000000000000000600052601160045260246000fd5b60006114ab82610c3b565b91507fffffffffffffffffffffffffffffffffffffffffffffffffffffffffffffffff82036114dd576114dc611471565b5b600182019050919050565b7f4e487b7100000000000000000000000000000000000000000000000000000000600052604160045260246000fd5b60008190508160005260206000209050919050565b60006020601f8301049050919050565b600082821b905092915050565b6000600883026115797fffffffffffffffffffffffffffffffffffffffffffffffffffffffffffffffff8261153c565b611583868361153c565b95508019841693508086168417925050509392505050565b6000819050919050565b60006115c06115bb6115b684610c3b565b61159b565b610c3b565b9050919050565b6000819050919050565b6115da836115a5565b6115ee6115e6826115c7565b848454611549565b825550505050565b600090565b6116036115f6565b61160e8184846115d1565b505050565b5b81811015611632576116276000826115fb565b600181019050611614565b5050565b601f8211156116775761164881611517565b6116518461152c565b81016020851015611660578190505b61167461166c8561152c565b830182611613565b50505b505050565b600082821c905092915050565b600061169a6000198460080261167c565b1980831691505092915050565b60006116b38383611689565b9150826002028217905092915050565b6116cc82610d7e565b67ffffffffffffffff8111156116e5576116e46114e8565b5b6116ef82546112fc565b6116fa828285611636565b600060209050601f83116001811461172d576000841561171b578287015190505b61172585826116a7565b86555061178d565b601f19841661173b86611517565b60005b828110156117635784890151825560018201915060208501945060208101905061173e565b86831015611780578489015161177c601f891682611689565b8355505b6001600288020188555050505b505050505050565b82818337600083830152505050565b60006117b08385610d89565b93506117bd838584611795565b6117c683610dc4565b840190509392505050565b6000819050919050565b60006117ea602084018461128b565b905092915050565b6000602082019050919050565b600061180b83856110c9565b9350611816826117d1565b8060005b8581101561184f5761182c82846117db565b61183688826110f9565b9750611841836117f2565b92505060018101905061181a565b5085925050509392505050565b600060a0820190508181036000830152611877818a8c6117a4565b9050818103602083015261188c81888a6117a4565b905061189b6040830187610e0e565b6118a86060830186610e0e565b81810360808301526118bb8184866117ff565b9050999850505050505050505056fea26469706673582212203f112a4a17c33b548698477e3b1c5bac8ee6b9417a13b916813b512532a11f4764736f6c63430008180033",
  "linkReferences": {},
  "deployedLinkReferences": {}
}