{
  "_format": "hh-sol-artifact-1",
  "contractName": "Results",
  "sourceName": "contracts/Results.sol",
  "abi": [
    {
      "inputs": [
        {
          "internalType": "address",
          "name": "_ballot",
          "type": "address"
        },
        {
          "internalType": "address",
          "name": "_em",
          "type": "address"
        },
        {
          "internalType": "address",
          "name": "_cm",
          "type": "address"
        }
      ],
      "stateMutability": "nonpayable",
      "type": "constructor"
    },
    {
      "inputs": [],
      "name": "ballot",
      "outputs": [
        {
          "internalType": "contract Ballot",
          "name": "",
          "type": "address"
        }
      ],
      "stateMutability": "view",
      "type": "function"
    },
    {
      "inputs": [],
      "name": "cm",
      "outputs": [
        {
          "internalType": "contract CandidateManager",
          "name": "",
          "type": "address"
        }
      ],
      "stateMutability": "view",
      "type": "function"
    },
    {
      "inputs": [],
      "name": "em",
      "outputs": [
        {
          "internalType": "contract ElectionManager",
          "name": "",
          "type": "address"
        }
      ],
      "stateMutability": "view",
      "type": "function"
    },
    {
      "inputs": [
        {
          "internalType": "uint256",
          "name": "electionId",
          "type": "uint256"
        },
        {
          "internalType": "uint256[]",
          "name": "candidateIds",
          "type": "uint256[]"
        }
      ],
      "name": "getElectionResults",
      "outputs": [
        {
          "components": [
            {
              "internalType": "uint256",
              "name": "candidateId",
              "type": "uint256"
            },
            {
              "internalType": "uint256",
              "name": "totalVotes",
              "type": "uint256"
            }
          ],
          "internalType": "struct Results.Result[]",
          "name": "",
          "type": "tuple[]"
        }
      ],
      "stateMutability": "view",
      "type": "function"
    }
  ],
  "bytecode": "0x60e060405234801561001057600080fd5b5060405161099438038061099483398181016040528101906100329190610139565b8273ffffffffffffffffffffffffffffffffffffffff1660808173ffffffffffffffffffffffffffffffffffffffff16815250508173ffffffffffffffffffffffffffffffffffffffff1660a08173ffffffffffffffffffffffffffffffffffffffff16815250508073ffffffffffffffffffffffffffffffffffffffff1660c08173ffffffffffffffffffffffffffffffffffffffff168152505050505061018c565b600080fd5b600073ffffffffffffffffffffffffffffffffffffffff82169050919050565b6000610106826100db565b9050919050565b610116816100fb565b811461012157600080fd5b50565b6000815190506101338161010d565b92915050565b600080600060608486031215610152576101516100d6565b5b600061016086828701610124565b935050602061017186828701610124565b925050604061018286828701610124565b9150509250925092565b60805160a05160c0516107d36101c1600039600060dd0152600061012501526000818161010101526101d101526107d36000f3fe608060405234801561001057600080fd5b506004361061004c5760003560e01c80639318162014610051578063ac3910a21461006f578063b0074de51461008d578063b320b39c146100ab575b600080fd5b6100596100db565b6040516100669190610353565b60405180910390f35b6100776100ff565b604051610084919061038f565b60405180910390f35b610095610123565b6040516100a291906103cb565b60405180910390f35b6100c560048036038101906100c09190610589565b610147565b6040516100d291906106d2565b60405180910390f35b7f000000000000000000000000000000000000000000000000000000000000000081565b7f000000000000000000000000000000000000000000000000000000000000000081565b7f000000000000000000000000000000000000000000000000000000000000000081565b60606000825167ffffffffffffffff81111561016657610165610446565b5b60405190808252806020026020018201604052801561019f57816020015b61018c6102ba565b8152602001906001900390816101845790505b50905060005b83518110156102af5760008482815181106101c3576101c26106f4565b5b6020026020010151905060007f000000000000000000000000000000000000000000000000000000000000000073ffffffffffffffffffffffffffffffffffffffff166391f3663388846040518363ffffffff1660e01b815260040161022a929190610732565b602060405180830381865afa158015610247573d6000803e3d6000fd5b505050506040513d601f19601f8201168201806040525081019061026b9190610770565b9050604051806040016040528083815260200182815250848481518110610295576102946106f4565b5b6020026020010181905250505080806001019150506101a5565b508091505092915050565b604051806040016040528060008152602001600081525090565b600073ffffffffffffffffffffffffffffffffffffffff82169050919050565b6000819050919050565b600061031961031461030f846102d4565b6102f4565b6102d4565b9050919050565b600061032b826102fe565b9050919050565b600061033d82610320565b9050919050565b61034d81610332565b82525050565b60006020820190506103686000830184610344565b92915050565b600061037982610320565b9050919050565b6103898161036e565b82525050565b60006020820190506103a46000830184610380565b92915050565b60006103b582610320565b9050919050565b6103c5816103aa565b82525050565b60006020820190506103e060008301846103bc565b92915050565b6000604051905090565b600080fd5b600080fd5b6000819050919050565b61040d816103fa565b811461041857600080fd5b50565b60008135905061042a81610404565b92915050565b600080fd5b6000601f19601f8301169050919050565b7f4e487b7100000000000000000000000000000000000000000000000000000000600052604160045260246000fd5b61047e82610435565b810181811067ffffffffffffffff8211171561049d5761049c610446565b5b80604052505050565b60006104b06103e6565b90506104bc8282610475565b919050565b600067ffffffffffffffff8211156104dc576104db610446565b5b602082029050602081019050919050565b600080fd5b6000610505610500846104c1565b6104a6565b90508083825260208201905060208402830185811115610528576105276104ed565b5b835b81811015610551578061053d888261041b565b84526020840193505060208101905061052a565b5050509392505050565b600082601f8301126105705761056f610430565b5b81356105808482602086016104f2565b91505092915050565b600080604083850312156105a05761059f6103f0565b5b60006105ae8582860161041b565b925050602083013567ffffffffffffffff8111156105cf576105ce6103f5565b5b6105db8582860161055b565b9150509250929050565b600081519050919050565b600082825260208201905092915050565b6000819050602082019050919050565b61061a816103fa565b82525050565b6040820160008201516106366000850182610611565b5060208201516106496020850182610611565b50505050565b600061065b8383610620565b60408301905092915050565b6000602082019050919050565b600061067f826105e5565b61068981856105f0565b935061069483610601565b8060005b838110156106c55781516106ac888261064f565b97506106b783610667565b925050600181019050610698565b5085935050505092915050565b600060208201905081810360008301526106ec8184610674565b905092915050565b7f4e487b7100000000000000000000000000000000000000000000000000000000600052603260045260246000fd5b61072c816103fa565b82525050565b60006040820190506107476000830185610723565b6107546020830184610723565b9392505050565b60008151905061076a81610404565b92915050565b600060208284031215610786576107856103f0565b5b60006107948482850161075b565b9150509291505056fea2646970667358221220d9d91d17dc45cf3561a939090c968d14d6ef54619106e8ae56da3343eda23dd564736f6c63430008180033",
  "linkReferences": {},
  "deployedLinkReferences": {}
}