{
  "_format": "hh-sol-artifact-1",
  "contractName": "VoterRegistry",
  "sourceName": "contracts/VoterRegistry.sol",
  "abi": [
    {
      "inputs": [],
      "stateMutability": "nonpayable",
      "type": "constructor"
    },
    {
      "inputs": [
        {
          "internalType": "address",
          "name": "spender",
          "type": "address"
        },
        {
          "internalType": "uint256",
          "name": "allowance",
          "type": "uint256"
        },
        {
          "internalType": "uint256",
          "name": "needed",
          "type": "uint256"
        }
      ],
      "name": "ERC20InsufficientAllowance",
      "type": "error"
    },
    {
      "inputs": [
        {
          "internalType": "address",
          "name": "sender",
          "type": "address"
        },
        {
          "internalType": "uint256",
          "name": "balance",
          "type": "uint256"
        },
        {
          "internalType": "uint256",
          "name": "needed",
          "type": "uint256"
        }
      ],
      "name": "ERC20InsufficientBalance",
      "type": "error"
    },
    {
      "inputs": [
        {
          "internalType": "address",
          "name": "approver",
          "type": "address"
        }
      ],
      "name": "ERC20InvalidApprover",
      "type": "error"
    },
    {
      "inputs": [
        {
          "internalType": "address",
          "name": "receiver",
          "type": "address"
        }
      ],
      "name": "ERC20InvalidReceiver",
      "type": "error"
    },
    {
      "inputs": [
        {
          "internalType": "address",
          "name": "sender",
          "type": "address"
        }
      ],
      "name": "ERC20InvalidSender",
      "type": "error"
    },
    {
      "inputs": [
        {
          "internalType": "address",
          "name": "spender",
          "type": "address"
        }
      ],
      "name": "ERC20InvalidSpender",
      "type": "error"
    },
    {
      "inputs": [
        {
          "internalType": "address",
          "name": "owner",
          "type": "address"
        }
      ],
      "name": "OwnableInvalidOwner",
      "type": "error"
    },
    {
      "inputs": [
        {
          "internalType": "address",
          "name": "account",
          "type": "address"
        }
      ],
      "name": "OwnableUnauthorizedAccount",
      "type": "error"
    },
    {
      "anonymous": false,
      "inputs": [
        {
          "indexed": true,
          "internalType": "address",
          "name": "owner",
          "type": "address"
        },
        {
          "indexed": true,
          "internalType": "address",
          "name": "spender",
          "type": "address"
        },
        {
          "indexed": false,
          "internalType": "uint256",
          "name": "value",
          "type": "uint256"
        }
      ],
      "name": "Approval",
      "type": "event"
    },
    {
      "anonymous": false,
      "inputs": [
        {
          "indexed": true,
          "internalType": "address",
          "name": "previousOwner",
          "type": "address"
        },
        {
          "indexed": true,
          "internalType": "address",
          "name": "newOwner",
          "type": "address"
        }
      ],
      "name": "OwnershipTransferred",
      "type": "event"
    },
    {
      "anonymous": false,
      "inputs": [
        {
          "indexed": true,
          "internalType": "address",
          "name": "from",
          "type": "address"
        },
        {
          "indexed": true,
          "internalType": "address",
          "name": "to",
          "type": "address"
        },
        {
          "indexed": false,
          "internalType": "uint256",
          "name": "value",
          "type": "uint256"
        }
      ],
      "name": "Transfer",
      "type": "event"
    },
    {
      "anonymous": false,
      "inputs": [
        {
          "indexed": true,
          "internalType": "address",
          "name": "voter",
          "type": "address"
        }
      ],
      "name": "VoterRegistered",
      "type": "event"
    },
    {
      "anonymous": false,
      "inputs": [
        {
          "indexed": true,
          "internalType": "address",
          "name": "voter",
          "type": "address"
        }
      ],
      "name": "VotingTokenUsed",
      "type": "event"
    },
    {
      "inputs": [
        {
          "internalType": "address",
          "name": "owner",
          "type": "address"
        },
        {
          "internalType": "address",
          "name": "spender",
          "type": "address"
        }
      ],
      "name": "allowance",
      "outputs": [
        {
          "internalType": "uint256",
          "name": "",
          "type": "uint256"
        }
      ],
      "stateMutability": "view",
      "type": "function"
    },
    {
      "inputs": [
        {
          "internalType": "address",
          "name": "spender",
          "type": "address"
        },
        {
          "internalType": "uint256",
          "name": "value",
          "type": "uint256"
        }
      ],
      "name": "approve",
      "outputs": [
        {
          "internalType": "bool",
          "name": "",
          "type": "bool"
        }
      ],
      "stateMutability": "nonpayable",
      "type": "function"
    },
    {
      "inputs": [
        {
          "internalType": "address",
          "name": "account",
          "type": "address"
        }
      ],
      "name": "balanceOf",
      "outputs": [
        {
          "internalType": "uint256",
          "name": "",
          "type": "uint256"
        }
      ],
      "stateMutability": "view",
      "type": "function"
    },
    {
      "inputs": [],
      "name": "decimals",
      "outputs": [
        {
          "internalType": "uint8",
          "name": "",
          "type": "uint8"
        }
      ],
      "stateMutability": "view",
      "type": "function"
    },
    {
      "inputs": [
        {
          "internalType": "address",
          "name": "voter",
          "type": "address"
        }
      ],
      "name": "isEligible",
      "outputs": [
        {
          "internalType": "bool",
          "name": "",
          "type": "bool"
        }
      ],
      "stateMutability": "view",
      "type": "function"
    },
    {
      "inputs": [
        {
          "internalType": "address",
          "name": "voter",
          "type": "address"
        }
      ],
      "name": "isRegistered",
      "outputs": [
        {
          "internalType": "bool",
          "name": "",
          "type": "bool"
        }
      ],
      "stateMutability": "view",
      "type": "function"
    },
    {
      "inputs": [],
      "name": "name",
      "outputs": [
        {
          "internalType": "string",
          "name": "",
          "type": "string"
        }
      ],
      "stateMutability": "view",
      "type": "function"
    },
    {
      "inputs": [],
      "name": "owner",
      "outputs": [
        {
          "internalType": "address",
          "name": "",
          "type": "address"
        }
      ],
      "stateMutability": "view",
      "type": "function"
    },
    {
      "inputs": [
        {
          "internalType": "address[]",
          "name": "voters",
          "type": "address[]"
        }
      ],
      "name": "registerVoters",
      "outputs": [],
      "stateMutability": "nonpayable",
      "type": "function"
    },
    {
      "inputs": [],
      "name": "renounceOwnership",
      "outputs": [],
      "stateMutability": "nonpayable",
      "type": "function"
    },
    {
      "inputs": [],
      "name": "symbol",
      "outputs": [
        {
          "internalType": "string",
          "name": "",
          "type": "string"
        }
      ],
      "stateMutability": "view",
      "type": "function"
    },
    {
      "inputs": [],
      "name": "totalSupply",
      "outputs": [
        {
          "internalType": "uint256",
          "name": "",
          "type": "uint256"
        }
      ],
      "stateMutability": "view",
      "type": "function"
    },
    {
      "inputs": [
        {
          "internalType": "address",
          "name": "to",
          "type": "address"
        },
        {
          "internalType": "uint256",
          "name": "value",
          "type": "uint256"
        }
      ],
      "name": "transfer",
      "outputs": [
        {
          "internalType": "bool",
          "name": "",
          "type": "bool"
        }
      ],
      "stateMutability": "nonpayable",
      "type": "function"
    },
    {
      "inputs": [
        {
          "internalType": "address",
          "name": "from",
          "type": "address"
        },
        {
          "internalType": "address",
          "name": "to",
          "type": "address"
        },
        {
          "internalType": "uint256",
          "name": "value",
          "type": "uint256"
        }
      ],
      "name": "transferFrom",
      "outputs": [
        {
          "internalType": "bool",
          "name": "",
          "type": "bool"
        }
      ],
      "stateMutability": "nonpayable",
      "type": "function"
    },
    {
      "inputs": [
        {
          "internalType": "address",
          "name": "newOwner",
          "type": "address"
        }
      ],
      "name": "transferOwnership",
      "outputs": [],
      "stateMutability": "nonpayable",
      "type": "function"
    },
    {
      "inputs": [
        {
          "internalType": "address",
          "name": "voter",
          "type": "address"
        }
      ],
      "name": "useVotingToken",
      "outputs": [],
      "stateMutability": "nonpayable",
      "type": "function"
    }
  ],
  "bytecode": "0x60806040523480156200001157600080fd5b50336040518060400160405280600b81526020017f566f74696e67546f6b656e0000000000000000000000000000000000000000008152506040518060400160405280600481526020017f564f544500000000000000000000000000000000000000000000000000000000815250816003908162000090919062000472565b508060049081620000a2919062000472565b505050600073ffffffffffffffffffffffffffffffffffffffff168173ffffffffffffffffffffffffffffffffffffffff16036200011a5760006040517f1e4fbdf70000000000000000000000000000000000000000000000000000000081526004016200011191906200059e565b60405180910390fd5b6200012b816200013260201b60201c565b50620005bb565b6000600560009054906101000a900473ffffffffffffffffffffffffffffffffffffffff16905081600560006101000a81548173ffffffffffffffffffffffffffffffffffffffff021916908373ffffffffffffffffffffffffffffffffffffffff1602179055508173ffffffffffffffffffffffffffffffffffffffff168173ffffffffffffffffffffffffffffffffffffffff167f8be0079c531659141344cd1fd0a4f28419497f9722a3daafe3b4186f6b6457e060405160405180910390a35050565b600081519050919050565b7f4e487b7100000000000000000000000000000000000000000000000000000000600052604160045260246000fd5b7f4e487b7100000000000000000000000000000000000000000000000000000000600052602260045260246000fd5b600060028204905060018216806200027a57607f821691505b60208210810362000290576200028f62000232565b5b50919050565b60008190508160005260206000209050919050565b60006020601f8301049050919050565b600082821b905092915050565b600060088302620002fa7fffffffffffffffffffffffffffffffffffffffffffffffffffffffffffffffff82620002bb565b620003068683620002bb565b95508019841693508086168417925050509392505050565b6000819050919050565b6000819050919050565b6000620003536200034d62000347846200031e565b62000328565b6200031e565b9050919050565b6000819050919050565b6200036f8362000332565b620003876200037e826200035a565b848454620002c8565b825550505050565b600090565b6200039e6200038f565b620003ab81848462000364565b505050565b5b81811015620003d357620003c760008262000394565b600181019050620003b1565b5050565b601f8211156200042257620003ec8162000296565b620003f784620002ab565b8101602085101562000407578190505b6200041f6200041685620002ab565b830182620003b0565b50505b505050565b600082821c905092915050565b6000620004476000198460080262000427565b1980831691505092915050565b600062000462838362000434565b9150826002028217905092915050565b6200047d82620001f8565b67ffffffffffffffff81111562000499576200049862000203565b5b620004a5825462000261565b620004b2828285620003d7565b600060209050601f831160018114620004ea5760008415620004d5578287015190505b620004e1858262000454565b86555062000551565b601f198416620004fa8662000296565b60005b828110156200052457848901518255600182019150602085019450602081019050620004fd565b8683101562000544578489015162000540601f89168262000434565b8355505b6001600288020188555050505b505050505050565b600073ffffffffffffffffffffffffffffffffffffffff82169050919050565b6000620005868262000559565b9050919050565b620005988162000579565b82525050565b6000602082019050620005b560008301846200058d565b92915050565b61192a80620005cb6000396000f3fe608060405234801561001057600080fd5b50600436106101005760003560e01c80638da5cb5b11610097578063d3c579f911610066578063d3c579f9146102c5578063d55ec9c1146102e1578063dd62ed3e146102fd578063f2fde38b1461032d57610100565b80638da5cb5b1461022957806395d89b4114610247578063a9059cbb14610265578063c3c5a5471461029557610100565b8063313ce567116100d3578063313ce567146101a157806366e305fd146101bf57806370a08231146101ef578063715018a61461021f57610100565b806306fdde0314610105578063095ea7b31461012357806318160ddd1461015357806323b872dd14610171575b600080fd5b61010d610349565b60405161011a9190611200565b60405180910390f35b61013d600480360381019061013891906112c0565b6103db565b60405161014a919061131b565b60405180910390f35b61015b6103fe565b6040516101689190611345565b60405180910390f35b61018b60048036038101906101869190611360565b610408565b604051610198919061131b565b60405180910390f35b6101a9610437565b6040516101b691906113cf565b60405180910390f35b6101d960048036038101906101d491906113ea565b610440565b6040516101e6919061131b565b60405180910390f35b610209600480360381019061020491906113ea565b610474565b6040516102169190611345565b60405180910390f35b6102276104bc565b005b6102316104d0565b60405161023e9190611426565b60405180910390f35b61024f6104fa565b60405161025c9190611200565b60405180910390f35b61027f600480360381019061027a91906112c0565b61058c565b60405161028c919061131b565b60405180910390f35b6102af60048036038101906102aa91906113ea565b6105af565b6040516102bc919061131b565b60405180910390f35b6102df60048036038101906102da91906113ea565b610605565b005b6102fb60048036038101906102f691906114a6565b6106cd565b005b610317600480360381019061031291906114f3565b610873565b6040516103249190611345565b60405180910390f35b610347600480360381019061034291906113ea565b6108fa565b005b60606003805461035890611562565b80601f016020809104026020016040519081016040528092919081815260200182805461038490611562565b80156103d15780601f106103a6576101008083540402835291602001916103d1565b820191906000526020600020905b8154815290600101906020018083116103b457829003601f168201915b5050505050905090565b6000806103e6610980565b90506103f3818585610988565b600191505092915050565b6000600254905090565b600080610413610980565b905061042085828561099a565b61042b858585610a2f565b60019150509392505050565b60006012905090565b600061044a610437565b600a61045691906116f5565b60016104629190611740565b61046b83610474565b10159050919050565b60008060008373ffffffffffffffffffffffffffffffffffffffff1673ffffffffffffffffffffffffffffffffffffffff168152602001908152602001600020549050919050565b6104c4610b23565b6104ce6000610baa565b565b6000600560009054906101000a900473ffffffffffffffffffffffffffffffffffffffff16905090565b60606004805461050990611562565b80601f016020809104026020016040519081016040528092919081815260200182805461053590611562565b80156105825780601f1061055757610100808354040283529160200191610582565b820191906000526020600020905b81548152906001019060200180831161056557829003601f168201915b5050505050905090565b600080610597610980565b90506105a4818585610a2f565b600191505092915050565b6000600660008373ffffffffffffffffffffffffffffffffffffffff1673ffffffffffffffffffffffffffffffffffffffff16815260200190815260200160002060009054906101000a900460ff169050919050565b61060d610b23565b6000610617610437565b600a61062391906116f5565b600161062f9190611740565b90508061063b83610474565b101561067c576040517f08c379a0000000000000000000000000000000000000000000000000000000008152600401610673906117ce565b60405180910390fd5b6106868282610c70565b8173ffffffffffffffffffffffffffffffffffffffff167f715394767965eda4fd9de7da88577e0bf5f0c165c9eb1ff8b6bd802026187efa60405160405180910390a25050565b6106d5610b23565b60005b8282905081101561086e5760008383838181106106f8576106f76117ee565b5b905060200201602081019061070d91906113ea565b9050600660008273ffffffffffffffffffffffffffffffffffffffff1673ffffffffffffffffffffffffffffffffffffffff16815260200190815260200160002060009054906101000a900460ff161561079c576040517f08c379a000000000000000000000000000000000000000000000000000000000815260040161079390611869565b60405180910390fd5b6001600660008373ffffffffffffffffffffffffffffffffffffffff1673ffffffffffffffffffffffffffffffffffffffff16815260200190815260200160002060006101000a81548160ff02191690831515021790555061081d81610800610437565b600a61080c91906116f5565b60016108189190611740565b610cf2565b8073ffffffffffffffffffffffffffffffffffffffff167fb6be2187d059cc2a55fe29e0e503b566e1e0f8c8780096e185429350acffd3dd60405160405180910390a25080806001019150506106d8565b505050565b6000600160008473ffffffffffffffffffffffffffffffffffffffff1673ffffffffffffffffffffffffffffffffffffffff16815260200190815260200160002060008373ffffffffffffffffffffffffffffffffffffffff1673ffffffffffffffffffffffffffffffffffffffff16815260200190815260200160002054905092915050565b610902610b23565b600073ffffffffffffffffffffffffffffffffffffffff168173ffffffffffffffffffffffffffffffffffffffff16036109745760006040517f1e4fbdf700000000000000000000000000000000000000000000000000000000815260040161096b9190611426565b60405180910390fd5b61097d81610baa565b50565b600033905090565b6109958383836001610d74565b505050565b60006109a68484610873565b90507fffffffffffffffffffffffffffffffffffffffffffffffffffffffffffffffff811015610a295781811015610a19578281836040517ffb8f41b2000000000000000000000000000000000000000000000000000000008152600401610a1093929190611889565b60405180910390fd5b610a2884848484036000610d74565b5b50505050565b600073ffffffffffffffffffffffffffffffffffffffff168373ffffffffffffffffffffffffffffffffffffffff1603610aa15760006040517f96c6fd1e000000000000000000000000000000000000000000000000000000008152600401610a989190611426565b60405180910390fd5b600073ffffffffffffffffffffffffffffffffffffffff168273ffffffffffffffffffffffffffffffffffffffff1603610b135760006040517fec442f05000000000000000000000000000000000000000000000000000000008152600401610b0a9190611426565b60405180910390fd5b610b1e838383610f4b565b505050565b610b2b610980565b73ffffffffffffffffffffffffffffffffffffffff16610b496104d0565b73ffffffffffffffffffffffffffffffffffffffff1614610ba857610b6c610980565b6040517f118cdaa7000000000000000000000000000000000000000000000000000000008152600401610b9f9190611426565b60405180910390fd5b565b6000600560009054906101000a900473ffffffffffffffffffffffffffffffffffffffff16905081600560006101000a81548173ffffffffffffffffffffffffffffffffffffffff021916908373ffffffffffffffffffffffffffffffffffffffff1602179055508173ffffffffffffffffffffffffffffffffffffffff168173ffffffffffffffffffffffffffffffffffffffff167f8be0079c531659141344cd1fd0a4f28419497f9722a3daafe3b4186f6b6457e060405160405180910390a35050565b600073ffffffffffffffffffffffffffffffffffffffff168273ffffffffffffffffffffffffffffffffffffffff1603610ce25760006040517f96c6fd1e000000000000000000000000000000000000000000000000000000008152600401610cd99190611426565b60405180910390fd5b610cee82600083610f4b565b5050565b600073ffffffffffffffffffffffffffffffffffffffff168273ffffffffffffffffffffffffffffffffffffffff1603610d645760006040517fec442f05000000000000000000000000000000000000000000000000000000008152600401610d5b9190611426565b60405180910390fd5b610d7060008383610f4b565b5050565b600073ffffffffffffffffffffffffffffffffffffffff168473ffffffffffffffffffffffffffffffffffffffff1603610de65760006040517fe602df05000000000000000000000000000000000000000000000000000000008152600401610ddd9190611426565b60405180910390fd5b600073ffffffffffffffffffffffffffffffffffffffff168373ffffffffffffffffffffffffffffffffffffffff1603610e585760006040517f94280d62000000000000000000000000000000000000000000000000000000008152600401610e4f9190611426565b60405180910390fd5b81600160008673ffffffffffffffffffffffffffffffffffffffff1673ffffffffffffffffffffffffffffffffffffffff16815260200190815260200160002060008573ffffffffffffffffffffffffffffffffffffffff1673ffffffffffffffffffffffffffffffffffffffff168152602001908152602001600020819055508015610f45578273ffffffffffffffffffffffffffffffffffffffff168473ffffffffffffffffffffffffffffffffffffffff167f8c5be1e5ebec7d5bd14f71427d1e84f3dd0314c0f7b2291e5b200ac8c7c3b92584604051610f3c9190611345565b60405180910390a35b50505050565b600073ffffffffffffffffffffffffffffffffffffffff168373ffffffffffffffffffffffffffffffffffffffff1603610f9d578060026000828254610f9191906118c0565b92505081905550611070565b60008060008573ffffffffffffffffffffffffffffffffffffffff1673ffffffffffffffffffffffffffffffffffffffff16815260200190815260200160002054905081811015611029578381836040517fe450d38c00000000000000000000000000000000000000000000000000000000815260040161102093929190611889565b60405180910390fd5b8181036000808673ffffffffffffffffffffffffffffffffffffffff1673ffffffffffffffffffffffffffffffffffffffff16815260200190815260200160002081905550505b600073ffffffffffffffffffffffffffffffffffffffff168273ffffffffffffffffffffffffffffffffffffffff16036110b95780600260008282540392505081905550611106565b806000808473ffffffffffffffffffffffffffffffffffffffff1673ffffffffffffffffffffffffffffffffffffffff168152602001908152602001600020600082825401925050819055505b8173ffffffffffffffffffffffffffffffffffffffff168373ffffffffffffffffffffffffffffffffffffffff167fddf252ad1be2c89b69c2b068fc378daa952ba7f163c4a11628f55a4df523b3ef836040516111639190611345565b60405180910390a3505050565b600081519050919050565b600082825260208201905092915050565b60005b838110156111aa57808201518184015260208101905061118f565b60008484015250505050565b6000601f19601f8301169050919050565b60006111d282611170565b6111dc818561117b565b93506111ec81856020860161118c565b6111f5816111b6565b840191505092915050565b6000602082019050818103600083015261121a81846111c7565b905092915050565b600080fd5b600080fd5b600073ffffffffffffffffffffffffffffffffffffffff82169050919050565b60006112578261122c565b9050919050565b6112678161124c565b811461127257600080fd5b50565b6000813590506112848161125e565b92915050565b6000819050919050565b61129d8161128a565b81146112a857600080fd5b50565b6000813590506112ba81611294565b92915050565b600080604083850312156112d7576112d6611222565b5b60006112e585828601611275565b92505060206112f6858286016112ab565b9150509250929050565b60008115159050919050565b61131581611300565b82525050565b6000602082019050611330600083018461130c565b92915050565b61133f8161128a565b82525050565b600060208201905061135a6000830184611336565b92915050565b60008060006060848603121561137957611378611222565b5b600061138786828701611275565b935050602061139886828701611275565b92505060406113a9868287016112ab565b9150509250925092565b600060ff82169050919050565b6113c9816113b3565b82525050565b60006020820190506113e460008301846113c0565b92915050565b600060208284031215611400576113ff611222565b5b600061140e84828501611275565b91505092915050565b6114208161124c565b82525050565b600060208201905061143b6000830184611417565b92915050565b600080fd5b600080fd5b600080fd5b60008083601f84011261146657611465611441565b5b8235905067ffffffffffffffff81111561148357611482611446565b5b60208301915083602082028301111561149f5761149e61144b565b5b9250929050565b600080602083850312156114bd576114bc611222565b5b600083013567ffffffffffffffff8111156114db576114da611227565b5b6114e785828601611450565b92509250509250929050565b6000806040838503121561150a57611509611222565b5b600061151885828601611275565b925050602061152985828601611275565b9150509250929050565b7f4e487b7100000000000000000000000000000000000000000000000000000000600052602260045260246000fd5b6000600282049050600182168061157a57607f821691505b60208210810361158d5761158c611533565b5b50919050565b7f4e487b7100000000000000000000000000000000000000000000000000000000600052601160045260246000fd5b60008160011c9050919050565b6000808291508390505b6001851115611619578086048111156115f5576115f4611593565b5b60018516156116045780820291505b8081029050611612856115c2565b94506115d9565b94509492505050565b60008261163257600190506116ee565b8161164057600090506116ee565b816001811461165657600281146116605761168f565b60019150506116ee565b60ff84111561167257611671611593565b5b8360020a91508482111561168957611688611593565b5b506116ee565b5060208310610133831016604e8410600b84101617156116c45782820a9050838111156116bf576116be611593565b5b6116ee565b6116d184848460016115cf565b925090508184048111156116e8576116e7611593565b5b81810290505b9392505050565b60006117008261128a565b915061170b836113b3565b92506117387fffffffffffffffffffffffffffffffffffffffffffffffffffffffffffffffff8484611622565b905092915050565b600061174b8261128a565b91506117568361128a565b92508282026117648161128a565b9150828204841483151761177b5761177a611593565b5b5092915050565b7f4e6f20766f74696e6720746f6b656e20617661696c61626c6500000000000000600082015250565b60006117b860198361117b565b91506117c382611782565b602082019050919050565b600060208201905081810360008301526117e7816117ab565b9050919050565b7f4e487b7100000000000000000000000000000000000000000000000000000000600052603260045260246000fd5b7f566f74657220616c726561647920726567697374657265640000000000000000600082015250565b600061185360188361117b565b915061185e8261181d565b602082019050919050565b6000602082019050818103600083015261188281611846565b9050919050565b600060608201905061189e6000830186611417565b6118ab6020830185611336565b6118b86040830184611336565b949350505050565b60006118cb8261128a565b91506118d68361128a565b92508282019050808211156118ee576118ed611593565b5b9291505056fea2646970667358221220822f2659134fb5482f0100393acb222663fa35c0da8cdc85e28c8cc8b2f3888f64736f6c63430008180033",
  "linkReferences": {},
  "deployedLinkReferences": {}
}