{
  "_format": "hh-sol-artifact-1",
  "contractName": "VoterRegistry",
  "sourceName": "contracts/VoterRegistry.sol",
  "abi": [
    {
      "inputs": [
        {
          "internalType": "string",
          "name": "uri",
          "type": "string"
        }
      ],
      "stateMutability": "nonpayable",
      "type": "constructor"
    },
    {
      "inputs": [
        {
          "internalType": "address",
          "name": "sender",
          "type": "address"
        },
        {
          "internalType": "uint256",
          "name": "balance",
          "type": "uint256"
        },
        {
          "internalType": "uint256",
          "name": "needed",
          "type": "uint256"
        },
        {
          "internalType": "uint256",
          "name": "tokenId",
          "type": "uint256"
        }
      ],
      "name": "ERC1155InsufficientBalance",
      "type": "error"
    },
    {
      "inputs": [
        {
          "internalType": "address",
          "name": "approver",
          "type": "address"
        }
      ],
      "name": "ERC1155InvalidApprover",
      "type": "error"
    },
    {
      "inputs": [
        {
          "internalType": "uint256",
          "name": "idsLength",
          "type": "uint256"
        },
        {
          "internalType": "uint256",
          "name": "valuesLength",
          "type": "uint256"
        }
      ],
      "name": "ERC1155InvalidArrayLength",
      "type": "error"
    },
    {
      "inputs": [
        {
          "internalType": "address",
          "name": "operator",
          "type": "address"
        }
      ],
      "name": "ERC1155InvalidOperator",
      "type": "error"
    },
    {
      "inputs": [
        {
          "internalType": "address",
          "name": "receiver",
          "type": "address"
        }
      ],
      "name": "ERC1155InvalidReceiver",
      "type": "error"
    },
    {
      "inputs": [
        {
          "internalType": "address",
          "name": "sender",
          "type": "address"
        }
      ],
      "name": "ERC1155InvalidSender",
      "type": "error"
    },
    {
      "inputs": [
        {
          "internalType": "address",
          "name": "operator",
          "type": "address"
        },
        {
          "internalType": "address",
          "name": "owner",
          "type": "address"
        }
      ],
      "name": "ERC1155MissingApprovalForAll",
      "type": "error"
    },
    {
      "inputs": [
        {
          "internalType": "address",
          "name": "owner",
          "type": "address"
        }
      ],
      "name": "OwnableInvalidOwner",
      "type": "error"
    },
    {
      "inputs": [
        {
          "internalType": "address",
          "name": "account",
          "type": "address"
        }
      ],
      "name": "OwnableUnauthorizedAccount",
      "type": "error"
    },
    {
      "anonymous": false,
      "inputs": [
        {
          "indexed": true,
          "internalType": "address",
          "name": "account",
          "type": "address"
        },
        {
          "indexed": true,
          "internalType": "address",
          "name": "operator",
          "type": "address"
        },
        {
          "indexed": false,
          "internalType": "bool",
          "name": "approved",
          "type": "bool"
        }
      ],
      "name": "ApprovalForAll",
      "type": "event"
    },
    {
      "anonymous": false,
      "inputs": [
        {
          "indexed": true,
          "internalType": "address",
          "name": "previousOwner",
          "type": "address"
        },
        {
          "indexed": true,
          "internalType": "address",
          "name": "newOwner",
          "type": "address"
        }
      ],
      "name": "OwnershipTransferred",
      "type": "event"
    },
    {
      "anonymous": false,
      "inputs": [
        {
          "indexed": true,
          "internalType": "address",
          "name": "operator",
          "type": "address"
        },
        {
          "indexed": true,
          "internalType": "address",
          "name": "from",
          "type": "address"
        },
        {
          "indexed": true,
          "internalType": "address",
          "name": "to",
          "type": "address"
        },
        {
          "indexed": false,
          "internalType": "uint256[]",
          "name": "ids",
          "type": "uint256[]"
        },
        {
          "indexed": false,
          "internalType": "uint256[]",
          "name": "values",
          "type": "uint256[]"
        }
      ],
      "name": "TransferBatch",
      "type": "event"
    },
    {
      "anonymous": false,
      "inputs": [
        {
          "indexed": true,
          "internalType": "address",
          "name": "operator",
          "type": "address"
        },
        {
          "indexed": true,
          "internalType": "address",
          "name": "from",
          "type": "address"
        },
        {
          "indexed": true,
          "internalType": "address",
          "name": "to",
          "type": "address"
        },
        {
          "indexed": false,
          "internalType": "uint256",
          "name": "id",
          "type": "uint256"
        },
        {
          "indexed": false,
          "internalType": "uint256",
          "name": "value",
          "type": "uint256"
        }
      ],
      "name": "TransferSingle",
      "type": "event"
    },
    {
      "anonymous": false,
      "inputs": [
        {
          "indexed": false,
          "internalType": "string",
          "name": "value",
          "type": "string"
        },
        {
          "indexed": true,
          "internalType": "uint256",
          "name": "id",
          "type": "uint256"
        }
      ],
      "name": "URI",
      "type": "event"
    },
    {
      "anonymous": false,
      "inputs": [
        {
          "indexed": true,
          "internalType": "uint256",
          "name": "electionId",
          "type": "uint256"
        },
        {
          "indexed": true,
          "internalType": "address",
          "name": "voter",
          "type": "address"
        }
      ],
      "name": "VoterRegistered",
      "type": "event"
    },
    {
      "anonymous": false,
      "inputs": [
        {
          "indexed": true,
          "internalType": "uint256",
          "name": "electionId",
          "type": "uint256"
        },
        {
          "indexed": true,
          "internalType": "address",
          "name": "voter",
          "type": "address"
        }
      ],
      "name": "VotingTokenUsed",
      "type": "event"
    },
    {
      "inputs": [
        {
          "internalType": "address",
          "name": "account",
          "type": "address"
        },
        {
          "internalType": "uint256",
          "name": "id",
          "type": "uint256"
        }
      ],
      "name": "balanceOf",
      "outputs": [
        {
          "internalType": "uint256",
          "name": "",
          "type": "uint256"
        }
      ],
      "stateMutability": "view",
      "type": "function"
    },
    {
      "inputs": [
        {
          "internalType": "address[]",
          "name": "accounts",
          "type": "address[]"
        },
        {
          "internalType": "uint256[]",
          "name": "ids",
          "type": "uint256[]"
        }
      ],
      "name": "balanceOfBatch",
      "outputs": [
        {
          "internalType": "uint256[]",
          "name": "",
          "type": "uint256[]"
        }
      ],
      "stateMutability": "view",
      "type": "function"
    },
    {
      "inputs": [],
      "name": "ballotContract",
      "outputs": [
        {
          "internalType": "address",
          "name": "",
          "type": "address"
        }
      ],
      "stateMutability": "view",
      "type": "function"
    },
    {
      "inputs": [
        {
          "internalType": "address",
          "name": "account",
          "type": "address"
        },
        {
          "internalType": "address",
          "name": "operator",
          "type": "address"
        }
      ],
      "name": "isApprovedForAll",
      "outputs": [
        {
          "internalType": "bool",
          "name": "",
          "type": "bool"
        }
      ],
      "stateMutability": "view",
      "type": "function"
    },
    {
      "inputs": [
        {
          "internalType": "uint256",
          "name": "electionId",
          "type": "uint256"
        },
        {
          "internalType": "address",
          "name": "voter",
          "type": "address"
        }
      ],
      "name": "isEligible",
      "outputs": [
        {
          "internalType": "bool",
          "name": "",
          "type": "bool"
        }
      ],
      "stateMutability": "view",
      "type": "function"
    },
    {
      "inputs": [],
      "name": "owner",
      "outputs": [
        {
          "internalType": "address",
          "name": "",
          "type": "address"
        }
      ],
      "stateMutability": "view",
      "type": "function"
    },
    {
      "inputs": [
        {
          "internalType": "uint256",
          "name": "electionId",
          "type": "uint256"
        },
        {
          "internalType": "address[]",
          "name": "voters",
          "type": "address[]"
        }
      ],
      "name": "registerVoters",
      "outputs": [],
      "stateMutability": "nonpayable",
      "type": "function"
    },
    {
      "inputs": [],
      "name": "renounceOwnership",
      "outputs": [],
      "stateMutability": "nonpayable",
      "type": "function"
    },
    {
      "inputs": [
        {
          "internalType": "address",
          "name": "from",
          "type": "address"
        },
        {
          "internalType": "address",
          "name": "to",
          "type": "address"
        },
        {
          "internalType": "uint256[]",
          "name": "ids",
          "type": "uint256[]"
        },
        {
          "internalType": "uint256[]",
          "name": "values",
          "type": "uint256[]"
        },
        {
          "internalType": "bytes",
          "name": "data",
          "type": "bytes"
        }
      ],
      "name": "safeBatchTransferFrom",
      "outputs": [],
      "stateMutability": "nonpayable",
      "type": "function"
    },
    {
      "inputs": [
        {
          "internalType": "address",
          "name": "from",
          "type": "address"
        },
        {
          "internalType": "address",
          "name": "to",
          "type": "address"
        },
        {
          "internalType": "uint256",
          "name": "id",
          "type": "uint256"
        },
        {
          "internalType": "uint256",
          "name": "value",
          "type": "uint256"
        },
        {
          "internalType": "bytes",
          "name": "data",
          "type": "bytes"
        }
      ],
      "name": "safeTransferFrom",
      "outputs": [],
      "stateMutability": "nonpayable",
      "type": "function"
    },
    {
      "inputs": [
        {
          "internalType": "address",
          "name": "operator",
          "type": "address"
        },
        {
          "internalType": "bool",
          "name": "approved",
          "type": "bool"
        }
      ],
      "name": "setApprovalForAll",
      "outputs": [],
      "stateMutability": "nonpayable",
      "type": "function"
    },
    {
      "inputs": [
        {
          "internalType": "address",
          "name": "_b",
          "type": "address"
        }
      ],
      "name": "setBallotContract",
      "outputs": [],
      "stateMutability": "nonpayable",
      "type": "function"
    },
    {
      "inputs": [
        {
          "internalType": "bytes4",
          "name": "interfaceId",
          "type": "bytes4"
        }
      ],
      "name": "supportsInterface",
      "outputs": [
        {
          "internalType": "bool",
          "name": "",
          "type": "bool"
        }
      ],
      "stateMutability": "view",
      "type": "function"
    },
    {
      "inputs": [
        {
          "internalType": "address",
          "name": "newOwner",
          "type": "address"
        }
      ],
      "name": "transferOwnership",
      "outputs": [],
      "stateMutability": "nonpayable",
      "type": "function"
    },
    {
      "inputs": [
        {
          "internalType": "uint256",
          "name": "",
          "type": "uint256"
        }
      ],
      "name": "uri",
      "outputs": [
        {
          "internalType": "string",
          "name": "",
          "type": "string"
        }
      ],
      "stateMutability": "view",
      "type": "function"
    },
    {
      "inputs": [
        {
          "internalType": "uint256",
          "name": "electionId",
          "type": "uint256"
        },
        {
          "internalType": "address",
          "name": "voter",
          "type": "address"
        }
      ],
      "name": "useVotingToken",
      "outputs": [],
      "stateMutability": "nonpayable",
      "type": "function"
    }
  ],
  "bytecode": "0x60806040523480156200001157600080fd5b5060405162002f6e38038062002f6e833981810160405281019062000037919062000347565b33816200004a81620000d960201b60201c565b50600073ffffffffffffffffffffffffffffffffffffffff168173ffffffffffffffffffffffffffffffffffffffff1603620000c05760006040517f1e4fbdf7000000000000000000000000000000000000000000000000000000008152600401620000b79190620003dd565b60405180910390fd5b620000d181620000ee60201b60201c565b50506200072c565b8060029081620000ea919062000645565b5050565b6000600360009054906101000a900473ffffffffffffffffffffffffffffffffffffffff16905081600360006101000a81548173ffffffffffffffffffffffffffffffffffffffff021916908373ffffffffffffffffffffffffffffffffffffffff1602179055508173ffffffffffffffffffffffffffffffffffffffff168173ffffffffffffffffffffffffffffffffffffffff167f8be0079c531659141344cd1fd0a4f28419497f9722a3daafe3b4186f6b6457e060405160405180910390a35050565b6000604051905090565b600080fd5b600080fd5b600080fd5b600080fd5b6000601f19601f8301169050919050565b7f4e487b7100000000000000000000000000000000000000000000000000000000600052604160045260246000fd5b6200021d82620001d2565b810181811067ffffffffffffffff821117156200023f576200023e620001e3565b5b80604052505050565b600062000254620001b4565b905062000262828262000212565b919050565b600067ffffffffffffffff821115620002855762000284620001e3565b5b6200029082620001d2565b9050602081019050919050565b60005b83811015620002bd578082015181840152602081019050620002a0565b60008484015250505050565b6000620002e0620002da8462000267565b62000248565b905082815260208101848484011115620002ff57620002fe620001cd565b5b6200030c8482856200029d565b509392505050565b600082601f8301126200032c576200032b620001c8565b5b81516200033e848260208601620002c9565b91505092915050565b60006020828403121562000360576200035f620001be565b5b600082015167ffffffffffffffff811115620003815762000380620001c3565b5b6200038f8482850162000314565b91505092915050565b600073ffffffffffffffffffffffffffffffffffffffff82169050919050565b6000620003c58262000398565b9050919050565b620003d781620003b8565b82525050565b6000602082019050620003f46000830184620003cc565b92915050565b600081519050919050565b7f4e487b7100000000000000000000000000000000000000000000000000000000600052602260045260246000fd5b600060028204905060018216806200044d57607f821691505b60208210810362000463576200046262000405565b5b50919050565b60008190508160005260206000209050919050565b60006020601f8301049050919050565b600082821b905092915050565b600060088302620004cd7fffffffffffffffffffffffffffffffffffffffffffffffffffffffffffffffff826200048e565b620004d986836200048e565b95508019841693508086168417925050509392505050565b6000819050919050565b6000819050919050565b600062000526620005206200051a84620004f1565b620004fb565b620004f1565b9050919050565b6000819050919050565b620005428362000505565b6200055a62000551826200052d565b8484546200049b565b825550505050565b600090565b6200057162000562565b6200057e81848462000537565b505050565b5b81811015620005a6576200059a60008262000567565b60018101905062000584565b5050565b601f821115620005f557620005bf8162000469565b620005ca846200047e565b81016020851015620005da578190505b620005f2620005e9856200047e565b83018262000583565b50505b505050565b600082821c905092915050565b60006200061a60001984600802620005fa565b1980831691505092915050565b600062000635838362000607565b9150826002028217905092915050565b6200065082620003fa565b67ffffffffffffffff8111156200066c576200066b620001e3565b5b62000678825462000434565b62000685828285620005aa565b600060209050601f831160018114620006bd5760008415620006a8578287015190505b620006b4858262000627565b86555062000724565b601f198416620006cd8662000469565b60005b82811015620006f757848901518255600182019150602085019450602081019050620006d0565b8683101562000717578489015162000713601f89168262000607565b8355505b6001600288020188555050505b505050505050565b612832806200073c6000396000f3fe608060405234801561001057600080fd5b50600436106100ff5760003560e01c806386eb830311610097578063d16dd9af11610066578063d16dd9af146102aa578063e985e9c5146102c6578063f242432a146102f6578063f2fde38b14610312576100ff565b806386eb8303146102385780638da5cb5b14610254578063a22cb46514610272578063c1983e331461028e576100ff565b80634e1273f4116100d35780634e1273f4146101b0578063592e0e00146101e0578063715018a6146102105780637831819d1461021a576100ff565b8062fdd58e1461010457806301ffc9a7146101345780630e89341c146101645780632eb2c2d614610194575b600080fd5b61011e60048036038101906101199190611a8b565b61032e565b60405161012b9190611ada565b60405180910390f35b61014e60048036038101906101499190611b4d565b610388565b60405161015b9190611b95565b60405180910390f35b61017e60048036038101906101799190611bb0565b61046a565b60405161018b9190611c6d565b60405180910390f35b6101ae60048036038101906101a99190611e8c565b6104fe565b005b6101ca60048036038101906101c5919061201e565b6105a6565b6040516101d79190612154565b60405180910390f35b6101fa60048036038101906101f59190612176565b6106af565b6040516102079190611b95565b60405180910390f35b6102186106c7565b005b6102226106db565b60405161022f91906121c5565b60405180910390f35b610252600480360381019061024d9190612176565b610701565b005b61025c610832565b60405161026991906121c5565b60405180910390f35b61028c6004803603810190610287919061220c565b61085c565b005b6102a860048036038101906102a3919061224c565b610872565b005b6102c460048036038101906102bf91906122d4565b6108be565b005b6102e060048036038101906102db9190612334565b610995565b6040516102ed9190611b95565b60405180910390f35b610310600480360381019061030b9190612374565b610a29565b005b61032c6004803603810190610327919061224c565b610ad1565b005b600080600083815260200190815260200160002060008473ffffffffffffffffffffffffffffffffffffffff1673ffffffffffffffffffffffffffffffffffffffff16815260200190815260200160002054905092915050565b60007fd9b67a26000000000000000000000000000000000000000000000000000000007bffffffffffffffffffffffffffffffffffffffffffffffffffffffff1916827bffffffffffffffffffffffffffffffffffffffffffffffffffffffff1916148061045357507f0e89341c000000000000000000000000000000000000000000000000000000007bffffffffffffffffffffffffffffffffffffffffffffffffffffffff1916827bffffffffffffffffffffffffffffffffffffffffffffffffffffffff1916145b80610463575061046282610b57565b5b9050919050565b6060600280546104799061243a565b80601f01602080910402602001604051908101604052809291908181526020018280546104a59061243a565b80156104f25780601f106104c7576101008083540402835291602001916104f2565b820191906000526020600020905b8154815290600101906020018083116104d557829003601f168201915b50505050509050919050565b6000610508610bc1565b90508073ffffffffffffffffffffffffffffffffffffffff168673ffffffffffffffffffffffffffffffffffffffff161415801561054d575061054b8682610995565b155b156105915780866040517fe237d92200000000000000000000000000000000000000000000000000000000815260040161058892919061246b565b60405180910390fd5b61059e8686868686610bc9565b505050505050565b606081518351146105f257815183516040517f5b0599910000000000000000000000000000000000000000000000000000000081526004016105e9929190612494565b60405180910390fd5b6000835167ffffffffffffffff81111561060f5761060e611c94565b5b60405190808252806020026020018201604052801561063d5781602001602082028036833780820191505090505b50905060005b84518110156106a45761067a6106628287610cc190919063ffffffff16565b6106758387610cd590919063ffffffff16565b61032e565b82828151811061068d5761068c6124bd565b5b602002602001018181525050806001019050610643565b508091505092915050565b600060016106bd838561032e565b1015905092915050565b6106cf610ce9565b6106d96000610d70565b565b600460009054906101000a900473ffffffffffffffffffffffffffffffffffffffff1681565b600460009054906101000a900473ffffffffffffffffffffffffffffffffffffffff1673ffffffffffffffffffffffffffffffffffffffff163373ffffffffffffffffffffffffffffffffffffffff1614610791576040517f08c379a000000000000000000000000000000000000000000000000000000000815260040161078890612538565b60405180910390fd5b600161079d828461032e565b10156107de576040517f08c379a00000000000000000000000000000000000000000000000000000000081526004016107d5906125a4565b60405180910390fd5b6107ea81836001610e36565b8073ffffffffffffffffffffffffffffffffffffffff16827f89563aa50e9d7d6322277cc391c14edf4f0274c1b3020a46955c70568a83707a60405160405180910390a35050565b6000600360009054906101000a900473ffffffffffffffffffffffffffffffffffffffff16905090565b61086e610867610bc1565b8383610edd565b5050565b61087a610ce9565b80600460006101000a81548173ffffffffffffffffffffffffffffffffffffffff021916908373ffffffffffffffffffffffffffffffffffffffff16021790555050565b6108c6610ce9565b60005b8282905081101561098f576109178383838181106108ea576108e96124bd565b5b90506020020160208101906108ff919061224c565b8560016040518060200160405280600081525061104d565b82828281811061092a576109296124bd565b5b905060200201602081019061093f919061224c565b73ffffffffffffffffffffffffffffffffffffffff16847ff45b8429c36d478f9a6d081c4811a819b98aa5b608588bed9d406405cf28247360405160405180910390a380806001019150506108c9565b50505050565b6000600160008473ffffffffffffffffffffffffffffffffffffffff1673ffffffffffffffffffffffffffffffffffffffff16815260200190815260200160002060008373ffffffffffffffffffffffffffffffffffffffff1673ffffffffffffffffffffffffffffffffffffffff16815260200190815260200160002060009054906101000a900460ff16905092915050565b6000610a33610bc1565b90508073ffffffffffffffffffffffffffffffffffffffff168673ffffffffffffffffffffffffffffffffffffffff1614158015610a785750610a768682610995565b155b15610abc5780866040517fe237d922000000000000000000000000000000000000000000000000000000008152600401610ab392919061246b565b60405180910390fd5b610ac986868686866110e6565b505050505050565b610ad9610ce9565b600073ffffffffffffffffffffffffffffffffffffffff168173ffffffffffffffffffffffffffffffffffffffff1603610b4b5760006040517f1e4fbdf7000000000000000000000000000000000000000000000000000000008152600401610b4291906121c5565b60405180910390fd5b610b5481610d70565b50565b60007f01ffc9a7000000000000000000000000000000000000000000000000000000007bffffffffffffffffffffffffffffffffffffffffffffffffffffffff1916827bffffffffffffffffffffffffffffffffffffffffffffffffffffffff1916149050919050565b600033905090565b600073ffffffffffffffffffffffffffffffffffffffff168473ffffffffffffffffffffffffffffffffffffffff1603610c3b5760006040517f57f447ce000000000000000000000000000000000000000000000000000000008152600401610c3291906121c5565b60405180910390fd5b600073ffffffffffffffffffffffffffffffffffffffff168573ffffffffffffffffffffffffffffffffffffffff1603610cad5760006040517f01a83514000000000000000000000000000000000000000000000000000000008152600401610ca491906121c5565b60405180910390fd5b610cba85858585856111f1565b5050505050565b600060208202602084010151905092915050565b600060208202602084010151905092915050565b610cf1610bc1565b73ffffffffffffffffffffffffffffffffffffffff16610d0f610832565b73ffffffffffffffffffffffffffffffffffffffff1614610d6e57610d32610bc1565b6040517f118cdaa7000000000000000000000000000000000000000000000000000000008152600401610d6591906121c5565b60405180910390fd5b565b6000600360009054906101000a900473ffffffffffffffffffffffffffffffffffffffff16905081600360006101000a81548173ffffffffffffffffffffffffffffffffffffffff021916908373ffffffffffffffffffffffffffffffffffffffff1602179055508173ffffffffffffffffffffffffffffffffffffffff168173ffffffffffffffffffffffffffffffffffffffff167f8be0079c531659141344cd1fd0a4f28419497f9722a3daafe3b4186f6b6457e060405160405180910390a35050565b600073ffffffffffffffffffffffffffffffffffffffff168373ffffffffffffffffffffffffffffffffffffffff1603610ea85760006040517f01a83514000000000000000000000000000000000000000000000000000000008152600401610e9f91906121c5565b60405180910390fd5b600080610eb584846112a3565b91509150610ed68560008484604051806020016040528060008152506111f1565b5050505050565b600073ffffffffffffffffffffffffffffffffffffffff168273ffffffffffffffffffffffffffffffffffffffff1603610f4f5760006040517fced3e100000000000000000000000000000000000000000000000000000000008152600401610f4691906121c5565b60405180910390fd5b80600160008573ffffffffffffffffffffffffffffffffffffffff1673ffffffffffffffffffffffffffffffffffffffff16815260200190815260200160002060008473ffffffffffffffffffffffffffffffffffffffff1673ffffffffffffffffffffffffffffffffffffffff16815260200190815260200160002060006101000a81548160ff0219169083151502179055508173ffffffffffffffffffffffffffffffffffffffff168373ffffffffffffffffffffffffffffffffffffffff167f17307eab39ab6107e8899845ad3d59bd9653f200f220920489ca2b5937696c31836040516110409190611b95565b60405180910390a3505050565b600073ffffffffffffffffffffffffffffffffffffffff168473ffffffffffffffffffffffffffffffffffffffff16036110bf5760006040517f57f447ce0000000000000000000000000000000000000000000000000000000081526004016110b691906121c5565b60405180910390fd5b6000806110cc85856112a3565b915091506110de6000878484876111f1565b505050505050565b600073ffffffffffffffffffffffffffffffffffffffff168473ffffffffffffffffffffffffffffffffffffffff16036111585760006040517f57f447ce00000000000000000000000000000000000000000000000000000000815260040161114f91906121c5565b60405180910390fd5b600073ffffffffffffffffffffffffffffffffffffffff168573ffffffffffffffffffffffffffffffffffffffff16036111ca5760006040517f01a835140000000000000000000000000000000000000000000000000000000081526004016111c191906121c5565b60405180910390fd5b6000806111d785856112a3565b915091506111e887878484876111f1565b50505050505050565b6111fd858585856112d3565b600073ffffffffffffffffffffffffffffffffffffffff168473ffffffffffffffffffffffffffffffffffffffff161461129c57600061123b610bc1565b9050600184510361128b57600061125c600086610cd590919063ffffffff16565b90506000611274600086610cd590919063ffffffff16565b905061128483898985858961167b565b505061129a565b61129981878787878761182f565b5b505b5050505050565b60608060405191506001825283602083015260408201905060018152826020820152604081016040529250929050565b805182511461131d57815181516040517f5b059991000000000000000000000000000000000000000000000000000000008152600401611314929190612494565b60405180910390fd5b6000611327610bc1565b905060005b835181101561153657600061134a8286610cd590919063ffffffff16565b905060006113618386610cd590919063ffffffff16565b9050600073ffffffffffffffffffffffffffffffffffffffff168873ffffffffffffffffffffffffffffffffffffffff161461148e57600080600084815260200190815260200160002060008a73ffffffffffffffffffffffffffffffffffffffff1673ffffffffffffffffffffffffffffffffffffffff1681526020019081526020016000205490508181101561143657888183856040517f03dee4c500000000000000000000000000000000000000000000000000000000815260040161142d94939291906125c4565b60405180910390fd5b81810360008085815260200190815260200160002060008b73ffffffffffffffffffffffffffffffffffffffff1673ffffffffffffffffffffffffffffffffffffffff16815260200190815260200160002081905550505b600073ffffffffffffffffffffffffffffffffffffffff168773ffffffffffffffffffffffffffffffffffffffff1614611529578060008084815260200190815260200160002060008973ffffffffffffffffffffffffffffffffffffffff1673ffffffffffffffffffffffffffffffffffffffff16815260200190815260200160002060008282546115219190612638565b925050819055505b505080600101905061132c565b5060018351036115f5576000611556600085610cd590919063ffffffff16565b9050600061156e600085610cd590919063ffffffff16565b90508573ffffffffffffffffffffffffffffffffffffffff168773ffffffffffffffffffffffffffffffffffffffff168473ffffffffffffffffffffffffffffffffffffffff167fc3d58168c5ae7397731d063d5bbf3d657854427343f4c083240f7aacaa2d0f6285856040516115e6929190612494565b60405180910390a45050611674565b8373ffffffffffffffffffffffffffffffffffffffff168573ffffffffffffffffffffffffffffffffffffffff168273ffffffffffffffffffffffffffffffffffffffff167f4a39dc06d4c0dbc64b70af90fd698a233a518aa5d07e595d983b8c0526c8f7fb868660405161166b92919061266c565b60405180910390a45b5050505050565b60008473ffffffffffffffffffffffffffffffffffffffff163b1115611827578373ffffffffffffffffffffffffffffffffffffffff1663f23a6e6187878686866040518663ffffffff1660e01b81526004016116dc9594939291906126f8565b6020604051808303816000875af192505050801561171857506040513d601f19601f820116820180604052508101906117159190612767565b60015b61179c573d8060008114611748576040519150601f19603f3d011682016040523d82523d6000602084013e61174d565b606091505b50600081510361179457846040517f57f447ce00000000000000000000000000000000000000000000000000000000815260040161178b91906121c5565b60405180910390fd5b805181602001fd5b63f23a6e6160e01b7bffffffffffffffffffffffffffffffffffffffffffffffffffffffff1916817bffffffffffffffffffffffffffffffffffffffffffffffffffffffff19161461182557846040517f57f447ce00000000000000000000000000000000000000000000000000000000815260040161181c91906121c5565b60405180910390fd5b505b505050505050565b60008473ffffffffffffffffffffffffffffffffffffffff163b11156119db578373ffffffffffffffffffffffffffffffffffffffff1663bc197c8187878686866040518663ffffffff1660e01b8152600401611890959493929190612794565b6020604051808303816000875af19250505080156118cc57506040513d601f19601f820116820180604052508101906118c99190612767565b60015b611950573d80600081146118fc576040519150601f19603f3d011682016040523d82523d6000602084013e611901565b606091505b50600081510361194857846040517f57f447ce00000000000000000000000000000000000000000000000000000000815260040161193f91906121c5565b60405180910390fd5b805181602001fd5b63bc197c8160e01b7bffffffffffffffffffffffffffffffffffffffffffffffffffffffff1916817bffffffffffffffffffffffffffffffffffffffffffffffffffffffff1916146119d957846040517f57f447ce0000000000000000000000000000000000000000000000000000000081526004016119d091906121c5565b60405180910390fd5b505b505050505050565b6000604051905090565b600080fd5b600080fd5b600073ffffffffffffffffffffffffffffffffffffffff82169050919050565b6000611a22826119f7565b9050919050565b611a3281611a17565b8114611a3d57600080fd5b50565b600081359050611a4f81611a29565b92915050565b6000819050919050565b611a6881611a55565b8114611a7357600080fd5b50565b600081359050611a8581611a5f565b92915050565b60008060408385031215611aa257611aa16119ed565b5b6000611ab085828601611a40565b9250506020611ac185828601611a76565b9150509250929050565b611ad481611a55565b82525050565b6000602082019050611aef6000830184611acb565b92915050565b60007fffffffff0000000000000000000000000000000000000000000000000000000082169050919050565b611b2a81611af5565b8114611b3557600080fd5b50565b600081359050611b4781611b21565b92915050565b600060208284031215611b6357611b626119ed565b5b6000611b7184828501611b38565b91505092915050565b60008115159050919050565b611b8f81611b7a565b82525050565b6000602082019050611baa6000830184611b86565b92915050565b600060208284031215611bc657611bc56119ed565b5b6000611bd484828501611a76565b91505092915050565b600081519050919050565b600082825260208201905092915050565b60005b83811015611c17578082015181840152602081019050611bfc565b60008484015250505050565b6000601f19601f8301169050919050565b6000611c3f82611bdd565b611c498185611be8565b9350611c59818560208601611bf9565b611c6281611c23565b840191505092915050565b60006020820190508181036000830152611c878184611c34565b905092915050565b600080fd5b7f4e487b7100000000000000000000000000000000000000000000000000000000600052604160045260246000fd5b611ccc82611c23565b810181811067ffffffffffffffff82111715611ceb57611cea611c94565b5b80604052505050565b6000611cfe6119e3565b9050611d0a8282611cc3565b919050565b600067ffffffffffffffff821115611d2a57611d29611c94565b5b602082029050602081019050919050565b600080fd5b6000611d53611d4e84611d0f565b611cf4565b90508083825260208201905060208402830185811115611d7657611d75611d3b565b5b835b81811015611d9f5780611d8b8882611a76565b845260208401935050602081019050611d78565b5050509392505050565b600082601f830112611dbe57611dbd611c8f565b5b8135611dce848260208601611d40565b91505092915050565b600080fd5b600067ffffffffffffffff821115611df757611df6611c94565b5b611e0082611c23565b9050602081019050919050565b82818337600083830152505050565b6000611e2f611e2a84611ddc565b611cf4565b905082815260208101848484011115611e4b57611e4a611dd7565b5b611e56848285611e0d565b509392505050565b600082601f830112611e7357611e72611c8f565b5b8135611e83848260208601611e1c565b91505092915050565b600080600080600060a08688031215611ea857611ea76119ed565b5b6000611eb688828901611a40565b9550506020611ec788828901611a40565b945050604086013567ffffffffffffffff811115611ee857611ee76119f2565b5b611ef488828901611da9565b935050606086013567ffffffffffffffff811115611f1557611f146119f2565b5b611f2188828901611da9565b925050608086013567ffffffffffffffff811115611f4257611f416119f2565b5b611f4e88828901611e5e565b9150509295509295909350565b600067ffffffffffffffff821115611f7657611f75611c94565b5b602082029050602081019050919050565b6000611f9a611f9584611f5b565b611cf4565b90508083825260208201905060208402830185811115611fbd57611fbc611d3b565b5b835b81811015611fe65780611fd28882611a40565b845260208401935050602081019050611fbf565b5050509392505050565b600082601f83011261200557612004611c8f565b5b8135612015848260208601611f87565b91505092915050565b60008060408385031215612035576120346119ed565b5b600083013567ffffffffffffffff811115612053576120526119f2565b5b61205f85828601611ff0565b925050602083013567ffffffffffffffff8111156120805761207f6119f2565b5b61208c85828601611da9565b9150509250929050565b600081519050919050565b600082825260208201905092915050565b6000819050602082019050919050565b6120cb81611a55565b82525050565b60006120dd83836120c2565b60208301905092915050565b6000602082019050919050565b600061210182612096565b61210b81856120a1565b9350612116836120b2565b8060005b8381101561214757815161212e88826120d1565b9750612139836120e9565b92505060018101905061211a565b5085935050505092915050565b6000602082019050818103600083015261216e81846120f6565b905092915050565b6000806040838503121561218d5761218c6119ed565b5b600061219b85828601611a76565b92505060206121ac85828601611a40565b9150509250929050565b6121bf81611a17565b82525050565b60006020820190506121da60008301846121b6565b92915050565b6121e981611b7a565b81146121f457600080fd5b50565b600081359050612206816121e0565b92915050565b60008060408385031215612223576122226119ed565b5b600061223185828601611a40565b9250506020612242858286016121f7565b9150509250929050565b600060208284031215612262576122616119ed565b5b600061227084828501611a40565b91505092915050565b600080fd5b60008083601f84011261229457612293611c8f565b5b8235905067ffffffffffffffff8111156122b1576122b0612279565b5b6020830191508360208202830111156122cd576122cc611d3b565b5b9250929050565b6000806000604084860312156122ed576122ec6119ed565b5b60006122fb86828701611a76565b935050602084013567ffffffffffffffff81111561231c5761231b6119f2565b5b6123288682870161227e565b92509250509250925092565b6000806040838503121561234b5761234a6119ed565b5b600061235985828601611a40565b925050602061236a85828601611a40565b9150509250929050565b600080600080600060a086880312156123905761238f6119ed565b5b600061239e88828901611a40565b95505060206123af88828901611a40565b94505060406123c088828901611a76565b93505060606123d188828901611a76565b925050608086013567ffffffffffffffff8111156123f2576123f16119f2565b5b6123fe88828901611e5e565b9150509295509295909350565b7f4e487b7100000000000000000000000000000000000000000000000000000000600052602260045260246000fd5b6000600282049050600182168061245257607f821691505b6020821081036124655761246461240b565b5b50919050565b600060408201905061248060008301856121b6565b61248d60208301846121b6565b9392505050565b60006040820190506124a96000830185611acb565b6124b66020830184611acb565b9392505050565b7f4e487b7100000000000000000000000000000000000000000000000000000000600052603260045260246000fd5b7f4e6f7420617574686f72697a6564000000000000000000000000000000000000600082015250565b6000612522600e83611be8565b915061252d826124ec565b602082019050919050565b6000602082019050818103600083015261255181612515565b9050919050565b7f4e6f20766f74696e6720746f6b656e20617661696c61626c6500000000000000600082015250565b600061258e601983611be8565b915061259982612558565b602082019050919050565b600060208201905081810360008301526125bd81612581565b9050919050565b60006080820190506125d960008301876121b6565b6125e66020830186611acb565b6125f36040830185611acb565b6126006060830184611acb565b95945050505050565b7f4e487b7100000000000000000000000000000000000000000000000000000000600052601160045260246000fd5b600061264382611a55565b915061264e83611a55565b925082820190508082111561266657612665612609565b5b92915050565b6000604082019050818103600083015261268681856120f6565b9050818103602083015261269a81846120f6565b90509392505050565b600081519050919050565b600082825260208201905092915050565b60006126ca826126a3565b6126d481856126ae565b93506126e4818560208601611bf9565b6126ed81611c23565b840191505092915050565b600060a08201905061270d60008301886121b6565b61271a60208301876121b6565b6127276040830186611acb565b6127346060830185611acb565b818103608083015261274681846126bf565b90509695505050505050565b60008151905061276181611b21565b92915050565b60006020828403121561277d5761277c6119ed565b5b600061278b84828501612752565b91505092915050565b600060a0820190506127a960008301886121b6565b6127b660208301876121b6565b81810360408301526127c881866120f6565b905081810360608301526127dc81856120f6565b905081810360808301526127f081846126bf565b9050969550505050505056fea26469706673582212209eeb9769b57a79a96ffa89b1cd910bc43a128603186e7cea9984032ae6ceb9b264736f6c63430008180033",
  "linkReferences": {},
  "deployedLinkReferences": {}
}